:020000040800F2
:10000000203500205D020008BD3700086137000878
:1000100065370008E50600082D50000800000000C4
:100020000000000000000000000000003D3C00084F
:100030009509000800000000C1370008093D0008CC
:1000400077020008770200087702000877020008AC
:10005000770200087702000877020008770200089C
:10006000770200087702000877020008770200088C
:10007000770200087D090008770200088909000856
:10008000770200087702000877020008770200086C
:10009000770200087702000877020008770200085C
:1000A000770200084D3D000877020008770200083B
:1000B000770200087702000877020008770200083C
:1000C000770200087702000877020008D13900089B
:1000D0007702000809500008155000082150000858
:1000E000770200087702000877020008770200080C
:1000F00077020008770200087702000877020008FC
:10010000000000000000000000000000770200086E
:1001100077020008770200087702000877020008DB
:1001200077020008770200087702000877020008CB
:1001300077020008770200080000000000000000BD
:10014000770200087702000877020008000000002C
:10015000000000000000000000000000000000009F
:10016000000000000000000077020008770200088D
:1001700077020008000000000000000000000000FE
:10018000000000007702000800F002F800F057F8C5
:1001900014A696E8000CB244B344DA4501D100F04D
:1001A0004EF8BAE80F000FA696E83000A5EB04055C
:1001B00004EB0607AAEB0704A7F101074FEA1515A0
:1001C0004FEA3414A4F10104AC4201D300F037F833
:1001D00013F0010F18BFFB1A43F0010300F001F800
:1001E000DBE718470C6400002C640000103A24BFC1
:1001F00078C878C1FAD8520724BF30C830C144BF8C
:1002000004680C6070470000704700000023002461
:1002100000250026103A28BF78C1FBD8520728BF16
:1002200030C148BF0B607047782900F0758000200E
:1002300070471FB506F060F91FBD10B510BD00F086
:1002400008FA1146FFF7F5FF05F0A4F800F026FACA
:1002500003B4FFF7F2FF03BC00F02EFA0948804711
:1002600009480047FEE7FEE7FEE7FEE7FEE7FEE798
:10027000FEE7FEE7FEE7FEE704480549054A064BB0
:1002800070470000393D000889010008202F002038
:100290002035002020310020203100200FB41CB573
:1002A000084B06AA7B4469460090059800F0B9F90E
:1002B00004460020694600F0C7F920461CBC5DF8E2
:1002C00014FB0000A103000070B5044685690068B6
:1002D000C10601D5302600E02026C00707D070BD3A
:1002E000D4E9012130469047206A401C20626D1EEF
:1002F000F6D570BD70B5044685690078C00707D192
:1003000070BDD4E9012120209047206A401C206262
:100310006D1EF6D570BD000070B504460D46214631
:100320001068AFF300802188090502D50F4A7A448E
:1003300002E00E4A7A440E32002104F1240305E063
:1003400000F00F060009965D5E54491C0028F7D1A5
:1003500020780023000704D5702D02D009B10223B4
:1003600011322046BDE8704000F0FCB8E0610000AA
:100370002DE9F05F894604464FF0000ADFF824B10A
:10038000FB44C0F820A02046E168884700287DD0C3
:10039000252806D0D4E901219047206A401C20621C
:1003A000F1E700255F462046E16888472028064699
:1003B00007DB312E05D2B81910F8200C08B105431F
:1003C000F1E7A80701D525F00405C4F81CA0002713
:1003D000C4F818A02A2E09D0304606F086F838B3A3
:1003E00004EB8708303EC8F8186019E059F8041B80
:1003F000204604EB87029161E1688847012F064699
:1004000018D1E069002820DA25F020051DE0D8F891
:10041000180000EB800006EB40003038C8F81800E8
:100420002046E1688847064606F05FF80028EED1CE
:10043000012F0AD02E2E08D12046E16888477F1C64
:100440000646022F45F02005C4DBA069002803DA28
:10045000404245F00105A061E80701D025F01005F4
:10046000A6B1A6F14100192802D8203645F400654E
:100470004A463146204625604D46FFF7D5FE60B11D
:10048000012807D0ED1D25F0070000E007E000F18E
:10049000080978E705F1040975E730467AE7206A2C
:1004A000BDE8F09FB661000030B505460B462A4610
:1004B00013F8014B12F8010B08B1A042F8D01CB19F
:1004C000002802D06D1CF1E7284630BD4FF0000235
:1004D0000429C0F0128010F0030C00F01B80CCF156
:1004E000040CBCF1020F18BF00F8012BA8BF20F8C4
:1004F000022BA1EB0C0100F00DB85FEAC17C24BF18
:1005000000F8012B00F8012B48BF00F8012B7047C1
:100510004FF0000200B5134694469646203922BF9C
:10052000A0E80C50A0E80C50B1F12001BFF4F7AFE7
:10053000090728BFA0E80C5048BF0CC05DF804EBC9
:10054000890028BF40F8042B08BF704748BF20F837
:10055000022B11F0804F18BF00F8012B7047704735
:10056000704770472DE9F0470D469946924604467C
:1005700000F124080168880604D5E06921F0100123
:10058000216000E00120A84201DD471B00E00027B8
:10059000A1697A1902EB0900081AA0612078C00647
:1005A00002D42046FFF790FE002608E0D4E901219E
:1005B0001AF806009047206A401C761C20624E45BF
:1005C000F4DB2078C0060AD52046FFF77DFE06E062
:1005D000D4E9012130209047206A401C2062381E57
:1005E000A7F10107F4DC07E0D4E9012118F80500C0
:1005F0009047206A401C2062281EA5F10105F3DC0B
:100600002046FFF777FE2078000602D50220BDE8DD
:10061000F0870120FBE7000001694A1C02610878AD
:10062000704700B58FB0CDE9013100210591054932
:100630007944CDE9031011466846FFF799FE0FB0E3
:1006400000BD0000E5FFFFFF0A6802F8010B0A6029
:100650007047754600F02CF8AE46050069465346D3
:1006600020F00700854618B020B5FFF705FEBDE86D
:1006700020404FF000064FF000074FF000084FF009
:10068000000BAC46ACE8C009ACE8C009ACE8C00956
:10069000ACE8C00921F007018D46704710B504464B
:1006A000AFF300802046BDE81040FFF7D1BD000049
:1006B000004870471000002001491820ABBEFEE73B
:1006C000260002007047000040F60004C4F6000453
:1006D00020464FF4807100F093FC4FF4FA7004F060
:1006E000A9FFF5E7FEE7000080B588B0084802AF33
:1006F000019007A000F1040E9EE80E50806987E883
:100700000E50079001A8002104F0B0FF08B080BD92
:10071000BC650008C90600080100000000000000D8
:1007200080000000000000000000000080B58EB0D6
:10073000154808AF079014A000F1040E9EE80E5073
:10074000806987E80E500D9007A8002104F08EFF05
:1007500010B10EB080BD00BF124801AF009011A0D3
:1007600000F1040E80699EE80E50069040F2A4202D
:1007700087E80E50C2F2000069461B22642302F093
:1007800025FF0EB080BD00BFD7650008693700089F
:1007900000000000000000008000000000000000D9
:1007A000000000004D6F64756C65204543363030A5
:1007B000207461736B206661696C6564210D0A00A9
:1007C00080B58EB0164808AF079015A000F1040E52
:1007D0009EE80E50806987E80E500D9007A8002112
:1007E00004F044FF10B10EB080BD00BF13480DF1FE
:1007F000080E019011A000F1040C40699CE80E1055
:10080000069040F2A4208EE80E10C2F2000001A96A
:1008100014224FF0FF3302F0D9FE0EB080BD00BFAE
:10082000CD650008A50900080000000000000000D8
:10083000800000000000000000000000466C6173B2
:1008400068207461736B206661696C6564210D0AB0
:100850000000000010B58CB040F27000C2F2000041
:10086000011D174A016016A000F1040ED0E90540F1
:1008700005929EE80C50CDE90A4005A80692079320
:10088000CDF820C0CDF824E004F0F0FE10B10CB09B
:1008900010BD00BF11480DF1040C00900FA0031D06
:1008A00000690ECB049040F2A4208CE80E00C2F246
:1008B000000069461222642302F088FE0CB010BDCD
:1008C000D3650008590A0008FFFF0000000000007F
:1008D000800000000000000000000000475053208E
:1008E0007461736B206661696C6564210D0A000098
:1008F00080B58CB0154806AF059014A000F1040E29
:100900009EE80E50806987E80E500B9005A80021E4
:1009100004F0ACFE10B10CB080BD00BF12480DF168
:10092000040C009010A0031D00690ECB049040F24F
:10093000A4208CE80E00C2F20000694613224FF09A
:10094000FF3302F043FE0CB080BD00BFC26500085B
:10095000E9480008FFFF000000000000000200005E
:1009600000000000000000005541525420746173E3
:100970006B206661696C6564210D0A0040F21420E9
:10098000C2F2000000F07CB940F2D010C2F20000C8
:1009900000F076B970470000EFF3108072B600BF28
:1009A000FEE7000086B000208DF80200ADF80000E0
:1009B0004FF4FA7004F03EFE40F2A420C2F20000B0
:1009C0006946032202F09AFF40F2111004F092FCF3
:1009D000A8B146F24C50C0F6000090E80E10006935
:1009E0000DF1040E059040F2A4208EE80E10C2F224
:1009F000000001A912224FF0FF3302F0E7FD694623
:100A000040F21110032204F053FBB8B146F26050DB
:100A1000C0F6000090E80E1000690DF1040E05907C
:100A200040F2A4208EE80E10C2F2000001A91022AC
:100A30004FF0FF3302F0CAFD0AE000BF40F2A420ED
:100A4000C2F2000040F21111032202F0E9FE00BFE1
:100A50000A2004F0EFFDFBE7044640F27000C2F20A
:100A60000000046040F60000C4F6000004210022EB
:100A700000F0CEFA40F22C30C2F2000021460122F2
:100A800002F05AFC0A2004F0D5FDFBE770B5AAB0CD
:100A900005460A20059045F24730C0F64E500490B6
:100AA00045F24140C4F22B30039003A928460922A5
:100AB000642302F08BFD06AE30466421FFF728FD6B
:100AC00028463146642202F051FB4FF4FA7004F0DC
:100AD000B1FD284601F03CFE43F62020C0F2200084
:100AE000019044F64950C4F64510009040F2A4200D
:100AF000C2F2000069460722642302F067FD00206D
:100B000020A90022335CA3F13005092D9EBFD5B288
:100B100001324B5533185D780A30A5F13004092CA9
:100B20009EBFD4B201320D559D78A5F13004092C39
:100B30009EBFD4B201320D55DD78A5F13004092CE9
:100B40009EBFD4B201320D551D79A5F13004092C98
:100B50009EBFD4B201320D555D79A5F13004092C48
:100B60009EBFD4B201320D559D79A5F13004092CF8
:100B70009EBFD4B201320D55DD79A5F13004092CA8
:100B80009EBFD4B201320D551D7AA5F13004092C57
:100B90009EBFD4B201320D555B7AA3F13005092D09
:100BA0009EBFD5B201324B556428ABD1501CD2B296
:100BB00000238B544FF0FF3240F2A42452FA80F00D
:100BC000C2F2000482B22046642302F0FFFC40F629
:100BD0000D201F901FA920460222642302F0F6FC7C
:100BE0002AB070BD002804BF0120704790F8211082
:100BF000022917D10168D0E90FC30A6822F00E025A
:100C00000A600A6822F001020A60012101FA03F277
:100C1000CCF8042080F821100021002280F8202048
:100C200008467047042181630121002280F82020BA
:100C30000846704790F8211002291BD180B5026840
:100C4000416BD0E90FCE1368002923F00E03136027
:100C5000136823F0010313604FF0010202FA0EF251
:100C6000CCF804204FF48072028418BF884700201B
:100C700080BD00BF0421816301207047806B7047F5
:100C8000B0B5D0E90FC30268DCF800100424D2F834
:100C900000E09C400C4218BF1EF0040520D1022445
:100CA0009C400C4218BF1EF0020527D1D94009070D
:100CB00022D51EF0080108BFB0BD116821F00E0159
:100CC0001160012101FA03F2CCF804208163016B69
:100CD0004FF48072028479B1BDE8B040084700BF8C
:100CE0001168890603D4116821F004011160CCF861
:100CF0000440C16A0029EFD1B0BD00BF1168890668
:100D000006D4116821F00A011160012180F8211038
:100D1000CCF80440816A0022002980F82020DBD131
:100D2000EAE70000002804BF012070472DE9F047E2
:100D300040F2000C0168C4F2020C4FF6F8320CF5D8
:100D40008163CBF6FD72994238BF02F580624CF6A2
:100D5000CD430A44CCF6CC43A2FB032E00F1040A97
:100D600000F110089AE8040698E8E0010B6843F6E1
:100D7000F07423EA040342EA030242EA090242EA67
:100D80000A0242EA050242EA060242EA070242EA8F
:100D900008020A600CF580616FF003023CBF00217D
:100DA000C4F2020102EA9E02C0E90F1200214FF4D0
:100DB000807281630284BDE8F047084670470000F6
:100DC00090F820C0BCF1010F04BF02207047F0B5BD
:100DD00090F821C04FF0010EBCF1010F80F820E027
:100DE00026D14FF0020C80F821C04FF0000CC0F863
:100DF00038C0D0E900C4C56AC66BDCF80070102C9E
:100E000027F00107CCF80070006C0EFA00F070605B
:100E10000846CCF8043004BF10460A46CCF8080057
:100E2000CCF80C20DCF8000045B140F00E000DE0DD
:100E3000002180F820100220F0BD00BF40F00A0021
:100E4000CCF80000DCF8000020F00400CCF8000032
:100E5000DCF8000040F00100CCF800000020F0BDFC
:100E60002DE9F04F82B00D68002D00F0C58000F133
:100E70003847860546EA972741F20006C4F6000681
:100E8000052240F2004EB04208BF0422C4F2010E17
:100E9000042F38BF3A464FF0000C012400270026EB
:100EA000009209E00D68013635FA06F207F10207F3
:100EB0000CF1040C00F0A08004FA06FB15EA0B0804
:100EC000F0D0D1F804A003230AF003056A1EBB404A
:100ED000012A6FEA03090FD88268CB6802EA090287
:100EE000BB401A4382604268CAF3001322EA0B0235
:100EF000B3401A43426003E0032D01D103251FE0F4
:100F0000C2688B6802EA0902BB401A43022DC26024
:100F100016D16FF0030202EA560202440CF01C05DF
:100F20000F23D2F820A003FA05FB0B692AEA0B0A6B
:100F3000AB4043EA0A031362D1F804A00AF00305A8
:100F4000026805FA07F302EA09021A431AF4403F5D
:100F50000260A7D041F21803C4F202031A684FF6E8
:100F6000084A42F001021A601A68CFF6FF7A02F0CE
:100F700001020192019A26F00302724452F80A908B
:100F80000CF00C050F23009CAB4029EA030304FA84
:100F900005F52B4342F80A30DEF808204B6842EA98
:100FA000080540F20C49DC0258BF22EA0805CEF8D9
:100FB0000850C4F20109D9F800209D0242EA080451
:100FC00058BF22EA0804C9F80040DEF804209D0357
:100FD00042EA080458BF22EA0804CEF80440DEF8CA
:100FE0000020DB0342EA080458BF22EA0804CEF8D6
:100FF0000040012456E700BF02B0BDE8F08F0000BA
:10100000426902EA0103914341EA03418161704769
:101010001823002A08BF2823C150704742F6C84051
:10102000C2F200000068704740F2000042F6C8417A
:10103000C2F20000C2F2000100780A6810440860A1
:101040007047000080B542F20000C4F2020001685F
:1010500041F010010160032000F0BCF80F2000F007
:1010600005F800F05BF8002080BD0000B0B586B048
:1010700041F21801C4F202010A68044642F4006217
:101080000A60096801A801F40061019101996946AB
:1010900000F088FA00F0BCFA4DF68361C4F21B310F
:1010A000A0FB01014FF0FF3000EB914140F25820CE
:1010B00042F60042C2F20000C4F2010240F2E733FD
:1010C0000025C0E90021C0E902530561856101F0F6
:1010D000F5F9054610B1284606B0B0BD40F25820DB
:1010E000C2F2000001F01EFA05460028F3D11920D3
:1010F00000F032F80F2C0DD81920214600220025CF
:1011000000F03CF840F20400C2F2000004602846FF
:1011100006B0B0BD0125284606B0B0BD82B041F290
:101120001800C4F202000168002241F001010160D0
:10113000016801F0010101910199416841F080517C
:10114000416040680F2100F08050009000986FF0DF
:10115000010002B000F012B8002848BF704700F04C
:101160001F01012202FA01F11C2202EAD0004EF214
:101170000012CEF2000281507047000010B54EF60A
:101180000C5CCEF2000CDCF80030C3F3022E8EF0C3
:101190000704042C28BF0424BEF103034FF0FF3ED4
:1011A0000EFA04F438BF0023A14399400EFA03F36A
:1011B0009A43114300F00F0200F160430901043A21
:1011C00003F564436244002848BF02F10C03197020
:1011D00010BD00004EF60C51CEF200010A684FF629
:1011E000FF031A4060F30A2242F0806040F0FD7075
:1011F000086070472DE9F04182B00446807841F2E2
:101200003006C007C4F2020656D056F8140C5FEA46
:10121000C0080BD456F8140C40F0805046F8140C5B
:1012200056F8140C00F080500190019847F2000726
:10123000C4F200073868C00512D4386840F48070E2
:101240003860FFF7EBFE05463868C00508D4FFF7A5
:10125000E5FE401B6428F7D9032002B0BDE8F08109
:1012600056F8100C10F4407015D0616801F440710C
:10127000884210D056F8100C40F24042C4F242228C
:10128000012320F4407113600023C007136046F867
:10129000101C40F0A18056F8100C616820F44070DA
:1012A0000843B8F1000F46F8100C05D456F8140C9A
:1012B00020F0805046F8140C2068C10722D1810725
:1012C00028D441072ED4810634D481033AD4410670
:1012D00042D4010748D4C1064ED4810554D4010636
:1012E0005CD4C10564D4C1046CD4800405D53068D5
:1012F000616B20F4007008433060002002B0BDE84C
:10130000F08100BF3168A26821F003011143316010
:101310008107D6D53168E26821F44031114331604C
:101320004107D0D53168226921F440211143316051
:101330008106CAD53168E26921F01001114331609C
:101340008103C4D556F82C1CA26B21F480011143F3
:1013500046F82C1C4106BCD53168226A21F02001D8
:10136000114331600107B6D53168626921F440113B
:1013700011433160C106B0D53168A26921F4400142
:10138000114331608105AAD556F82C1CE26A21F47C
:101390000001114346F82C1C0106A2D556F8041C86
:1013A000626A21F4F871114346F8041CC1059AD50C
:1013B00056F8041CA26A21F47851114346F8041C23
:1013C000C10492D53168226B21F4807111433160E0
:1013D00080048CD491E700BFFFF720FE054641F260
:1013E000883700BF56F8100C80073FF554AFFFF761
:1013F00015FE401BB8424FF00300F3D97EE7000012
:10140000002804BF012070472DE9F04381B042F26B
:101410000008C4F202080446D8F800000D4600F0A7
:10142000070088420CD2D8F8000020F007002843BB
:10143000C8F80000D8F8000000F00700A8425ED10C
:10144000206841F204098107C4F2020907D5D9F8DE
:101450000010A26821F0F0011143C9F80010C00784
:1014600044D1D8F8000000F00700A8420CD9D8F801
:10147000000020F007002843C8F80000D8F800005A
:1014800000F00700A8423AD12068410707D5D9F8F3
:101490000010E26821F4E0611143C9F80010000770
:1014A00008D5D9F80000216920F4605040EAC10055
:1014B000C9F80000D9F8002002F00C00082841F219
:1014C0000020C0F27A0051D146F28C53C2F383411E
:1014D000C0F60003595CD9F82830D2033CD440F65A
:1014E0000010C0F23D00484340E000BF60680228A1
:1014F0000AD001282AD159F8041C890308D40120F4
:1015000001B0BDE8F08300BF59F8041C8901F6D58D
:10151000D9F8001021F003010843C9F80000FFF7D3
:101520007DFD064641F28837D9F80000616800F079
:101530000C00B0EB810F94D0FFF770FD801BB84218
:10154000F2D9032001B0BDE8F08300BF59F8041CB4
:101550008907D4D5DCE700BF03F00F0246F29C53A5
:10156000C0F600039A5CB0FBF2F04843D9F80010D3
:1015700046F27452C1F30311C0F60002515C40F20E
:10158000080220FA01F140F20400C2F200000068F3
:10159000C2F200021160FFF769FD002001B0BDE852
:1015A000F08300000F22026041F20402C4F2020242
:1015B000136803F003034360136803F0F0038360D0
:1015C000136803F4E063C36012684FF4E06303EA56
:1015D000D202026142F20000C4F20200006800F090
:1015E000070008607047000040F2080041F2040163
:1015F000C2F20000C4F202010068096846F2845297
:10160000C1F30221C0F60002515CC84070470000DF
:1016100040F2080041F20401C2F20000C4F20201EB
:101620000068096846F28452C1F3C221C0F6000284
:10163000515CC8407047000041F2040CC4F2020C37
:10164000DCF8003003F00C00082841F20020C0F262
:101650007A0018BF704746F28C51C3F38342C0F63C
:1016600000018A5CDCF82810DB0305D440F600108A
:10167000C0F23D005043704746F29C5301F00F0109
:10168000C0F60003595CB0FBF1F050437047000016
:10169000002804BF012070472DE9F04182B00446C4
:1016A000007841F20006C007C4F202060CD0706850
:1016B00000F00C00042840F07F803068800303D5E0
:1016C0006068002800F03481207880071BD570689E
:1016D00010F00C0F09D0706800F00C00082840F0E2
:1016E0009F807068C00300F19B803068800703D53D
:1016F0002069012840F01C813068616920F0F80001
:1017000040EAC10030602078000713D420784007F9
:101710002AD4E569002D00F00681706800F00C0005
:10172000082840F0C180012D40F0F280012002B075
:10173000BDE8F081A069002800F09E800020C4F27E
:1017400042200121C0F88014FFF768FC054600BF65
:10175000706A8007DAD4FFF761FC401B0228F7D9D2
:10176000032002B0BDE8F081F0695FEAC00808D448
:10177000F06940F08050F061F06900F08050019015
:10178000019847F20007C4F200073868C00561D429
:10179000386840F480703860FFF740FC054600BFB1
:1017A0003868C00556D4FFF739FC401B6428F7D9C8
:1017B000032002B0BDE8F081706800F00C0008283A
:1017C00003D17068C0033FF578AF6068B0F5A02F13
:1017D00000F0F080B0F5803F00F0F080002840F08D
:1017E000F180306820F480303060306820F4802050
:1017F0003060F06AA16820F00F000843F062FFF744
:101800000DFC0546306880037FF55EAFFFF706FCF0
:10181000401B64284FF00300F4D902B0BDE8F0810A
:101820002069002840F20000C4F242205ED001216D
:101830000160FFF7F3FB0546306880073FF55CAFBA
:10184000FFF7ECFB401B0228F6D9032002B0BDE8ED
:10185000F08100BFE06800286ED0052800F0868087
:10186000012800F08780306A20F001003062306A81
:1018700020F0040081E000BF0020C4F242200021DB
:10188000C0F88014FFF7CAFB054600BF706A8007E6
:101890007FF53CAFFFF7C2FB401B0228F6D90320BF
:1018A00002B0BDE8F08100BF0027C4F2422700204B
:1018B0003866FFF7B3FB022D05460BD13068800177
:1018C00040F1A080FFF7AAFB401B02284FF0030065
:1018D000F4D9A2E73068800125D5FFF79FFB401BB4
:1018E00002284FF00300F5D997E700BF00210160FF
:1018F000FFF794FB054600BF306880077FF503AF14
:10190000FFF78CFB401B02284FF00300F4D984E75B
:101910007068216A00F480328A4209D1616A00F459
:101920007010884204D1002002B0BDE8F08100BFF1
:10193000012002B0BDE8F081306A20F00100306281
:10194000306A20F004003062FFF768FB054641F280
:10195000883700BF306A800722D5FFF75FFB401B46
:10196000B8424FF00300F5D957E700BF306A40F0A6
:1019700004003062306A40F001003062FFF74EFB35
:10198000054641F2883700BF306A800708D4FFF768
:1019900045FB401BB842F7D9032002B0BDE8F081F7
:1019A000B8F1000F3FF5B5AEF06920F08050F0615E
:1019B000AFE600BF306840F480203060306840F40B
:1019C000803006E0306820F480303060306820F4E9
:1019D00080203060F06AA16820F00F000843F062B8
:1019E000FFF71CFB054600BF306880033FF56CAE77
:1019F000FFF714FB401B6428F6D9032002B0BDE8B2
:101A0000F08100BF7068D4E9081220F4741010430C
:101A10000843706001203866FFF700FB044600BFF2
:101A2000306880013FF57FAFFFF7F8FA001B02280E
:101A30004FF00300F4D9F0E670470000B0B582B073
:101A4000044600684168826802F04103012B09D115
:101A500011F0400306D0E16C204602B0BDE8B04072
:101A6000084700BF930709D511F0800306D0216D08
:101A7000204602B0BDE8B040084700BF12F4B07F76
:101A800018BF11F0200301D102B0B0BD530618D524
:101A900094F85D30032B09D100210191C1680191B7
:101AA00080680190019802B0B0BD00BF236E43F082
:101AB0000403236600230193C368019383680193A1
:101AC000019B930604D4D20511D4226EDAB9DBE768
:101AD000236E43F00103236600230193836801937F
:101AE000036823F040030360019BD205EDD5226E0D
:101AF00042F0080222660022019282680192019A55
:101B0000226E002AC0D04268890722F0E0024260BB
:101B10004FF0010284F85D2020D0416843F6DD15C6
:101B200021F003014160A06DC0F6000538B14563A6
:101B3000FFF780F818B1206E40F040002066606D1D
:101B40000028A1D04563FFF775F800289CD0206ECF
:101B500040F04000206602B0B0BD00BF204602B099
:101B6000BDE8B040FFF768BF002804BF0120704700
:101B7000B0B50446406A28B10020206104F1140089
:101B800006E000BF6068B0F5827F03D004F11C005E
:101B9000002101600025A56294F85D0020B920466F
:101BA00084F85C5000F052F8022084F85D00206850
:101BB000D4F80CE00268BEF5E06F22F0400202604B
:101BC0004EF4006298BF0125B2F5706F1CBF002370
:101BD000A3624FEA053CD4E90135D4E9042103F4BA
:101BE000827305F404452B4402F002021A44A369EF
:101BF00001F00101E569114403F40072114405F09C
:101C00003802256A114405F08002A56A114405F4E2
:101C10000052114301600421626A0EF4706501EA0A
:101C20001341636B45EA0C0502F01002294303F0EF
:101C30000803114319434160C16921F40061C16186
:101C400000200121206684F85D10B0BD006843F2D9
:101C50000001C4F20101884218BF70472DE9F0412C
:101C600086B041F21400C4F20200416801AC41F4B4
:101C70008051416041684FF0020801F480510191A8
:101C800001990168002641F40031016001680327D1
:101C900001F40031019101990168052541F4802189
:101CA00001600068214600F48020019001984FF403
:101CB000004001904FF09040CDF8088003960497C3
:101CC0000595FFF7CDF83820CDE9010840F2004036
:101CD000C4F600002146CDE903670595FFF7C0F87B
:101CE000232005210022FFF749FA2320FFF734FAC9
:101CF00006B0BDE8F04170472DE9F04381B00446DD
:101D000090F85D00012811D16068994616460D468D
:101D1000B0F5827F01D1A068D0B194F85C000128B1
:101D200006D10227384601B0BDE8F083022708E05B
:101D3000012784F85C70FFF771F9002D18BF002EA1
:101D400014D1002084F85C00384601B0BDE8F0836F
:101D5000042084F85D00204629462A463346CDF803
:101D6000009000F01FFA01B0BDE8F0838046042027
:101D700084F85D00002020662564A4F84460A4F87F
:101D80004660A063A087E0872168C4E91300D4E916
:101D900002204B68B0F5E06F23F4805398BF03F541
:101DA0008053B2F5004F4B604AD10A6822F04002DE
:101DB0000A600A6822F480420A600A68520642D524
:101DC000B4F84610B0F5E06F46D800297BD019F181
:101DD000010010D120E000BF007B216C0870206C56
:101DE00001302064B4F846000138A4F84600B4F885
:101DF0004600002867D020688168C907ECD1FFF74A
:101E00000DF9A0EB08004845F1D342E0FFF706F9D1
:101E1000B4F84600002856D020688168C907F5D07C
:101E2000007B216C0870206C01302064B4F84600FF
:101E30000138A4F84600B4F846000028ECD142E08E
:101E40000A685206BCD40A6842F040020A60B4F83C
:101E50004610B0F5E06FB8D9A9B319F101000ED161
:101E60001FE000BFC068216C21F8020B2164B4F8A8
:101E700046000138A4F84600B4F8460018B32068BC
:101E80008168C907EED1FFF7C9F8A0EB0800484503
:101E9000F2D303274DE000BFFFF7C0F8B4F84600C7
:101EA00088B120688168C907F6D0C068216C21F824
:101EB000020B2164B4F846000138A4F84600B4F8D7
:101EC00046000028EDD16068B0F5827F0BD1A06894
:101ED000B0F5004F02D0B0F5806F04D120680168E2
:101EE00021F04001016020464946424601F03EFE95
:101EF00030B1206E40F0200020662020206613E0E4
:101F00006068B0F5827F0FD1A068B0F5004F02D0B5
:101F1000B0F5806F08D120464FF4C0614A46434671
:101F200001F064FD0028E4D1206E08B1012708E724
:101F30000027012084F85D0003E700002DE9F0414F
:101F400082B0044690F85C00012803D1022002B060
:101F5000BDE8F08101201D4616460F4684F85C005E
:101F6000FFF75CF894F85D1001290DD18046002F31
:101F70004FF0010018BF002E0ED1002184F85C1034
:101F800002B0BDE8F08100BF0220002184F85C109F
:101F900002B0BDE8F08100BF0320002184F85D009D
:101FA0002166A763A687E6872164A4F84410A4F8F5
:101FB0004610A068E164B0F5004F2068216507D1A4
:101FC000016821F040010160016841F48041016035
:101FD0000168490603D4016841F04001016061686D
:101FE000731EE268B1FA81F1B3FA83F349095B0920
:101FF000B2F5E06F41EA03013CD931B137F8021B79
:10200000C160A763E08F0138E087E08F00286FD0C0
:10201000681C0CD11DE000BFA16B31F8022BC2601F
:10202000A163E08F0138E087E08F002860D020684E
:1020300081688907F0D4FEF7F1FFA0EB0800A84201
:10204000F2D30320A5E000BFFEF7E8FFE08F0028F1
:102050004ED0206881688907F6D5A16B31F8022B34
:10206000C260A163E08F0138E087E08F0028F0D1E3
:102070003EE000BF89B1E18F02294FF6FE7103D324
:1020800037F8022BC26004E03A7801310273A06B8A
:10209000471CA763E08F0844E087E08F40B3681CCB
:1020A0005BD04FF6FE70461C08E000BFFEF7B6FF9F
:1020B000A0EB0800A842C4D2E08FC8B121688868AC
:1020C0008007F3D5E28FA06B022A05D330F8022BEC
:1020D000CA604FF6FE7104E000780873A06B3146C9
:1020E0000130A063E08F0844E087E08F0028E5D14D
:1020F00020464FF4C0512A46434601F077FC68B9A8
:1021000020462946424601F031FD38B920464FF4B9
:10211000C0612A46434601F069FC28B1206E40F0B8
:102120002000206620202066A06838B90020019099
:102130002068C1680191806801900198206E38B3D1
:102140000120002184F85C1002B0BDE8F08100BFDE
:10215000FEF764FFE08F0028CAD0206881688907F5
:10216000F6D5E28FA16B012A08D931F8022BC260A3
:10217000A163E08F0238E087ECE700BF09780173C4
:10218000A06B0130A063E08F0138E087E2E700BF79
:102190000020012184F85D10002184F85C1002B059
:1021A000BDE8F0812DE9F04381B0044690F85C0071
:1021B000012803D1022001B0BDE8F08301201E46B2
:1021C00015460F4684F85C00FEF728FF94F85D1072
:1021D000814601290CD1002F4FF0010018BF002DBE
:1021E00014D1002184F85C1001B0BDE8F08300BF79
:1021F0006068B0F5827F40F0B18004294FF00200A2
:10220000EFD1A1680029E6D0EBE700BF002EE8D0AF
:1022100094F85D0004281CBF052084F85D000020B0
:1022200020662564A4F84660A4F84460A763E687A6
:10223000C4E913002068A687E1684268B1F5E06F41
:1022400022F48052134698BF03F58053012E88BFB5
:10225000134643600268520603D4026842F040020B
:1022600002606268731EB2FA82F2B3FA83F3DDF899
:10227000208052095B09B1F5E06F43EA020175D98C
:1022800031B137F8021BC160A763E08F0138E087E6
:10229000012518F1010036D102E000BFFEF7BEFEB5
:1022A000E08F20B9B4F84600002800F0CD80206807
:1022B000816889070CD5E18F51B1012D08D1A16B3F
:1022C000002531F8022BC260A163E18F0139E1875B
:1022D0008168C907E2D0B4F846100029DED0C06892
:1022E000216C012521F8020B2164B4F84600013865
:1022F000A4F84600D2E700BFFEF790FEA0EB09006D
:10230000404580F09F80E08F20B9B4F84600002857
:1023100000F09A802068816889070CD5E18F51B15F
:10232000012D08D1A16B002531F8022BC260A163F9
:10233000E18F0139E1878168C907DDD0B4F8461023
:102340000029D9D0C068216C012521F8020B216435
:10235000B4F846000138A4F84600CDE70220002179
:1023600084F85C1001B0BDE8F08300BF89B1E18F53
:1023700002294FF6FE7103D337F8022BC26004E046
:102380003A7801310273A06B471CA763E08F0844C1
:10239000E087012608F10105E08F18B9B4F846007E
:1023A000002851D020688168890719D5E18FB9B11B
:1023B000012E15D1E28FA16B022A07D331F8022B2F
:1023C000C260A163E18F023908E000BF09780173A0
:1023D000A16B20680131A163E18F01390026E187FB
:1023E0008168C90726D0B4F8461019B3B4F846106E
:1023F000022913D3C168226C22F8021B2264B4F8AC
:1024000046100239A4F84610B4F84610012910D835
:10241000416841F4805141600BE000BF007B216CBA
:102420000870206C01302064B4F846000138A4F82C
:1024300046000126FEF7F2FD002DADD0A0EB09000D
:102440004045A9D3032029E020464FF4C05142461D
:102450004B4601F0CBFA68B9204641464A4601F0A6
:1024600085FB38B920464FF4C06142464B4601F027
:10247000BDFA78B1206E40F0200020662020206652
:102480000120216E51B10120002184F85C1001B0BF
:10249000BDE8F0830020216E0029F4D1012184F8E9
:1024A0005D10002184F85C1001B0BDE8F0830000ED
:1024B000704700007047000070470000002804BF0C
:1024C0000120704710B5044690F83D0028B900205F
:1024D00084F83C00204600F023F8022084F83D00F8
:1024E0002068211D01F038FC012084F8480084F8A0
:1024F0003E0084F83F0084F8400084F8410084F8EE
:10250000420084F8430084F8440084F8450084F8CD
:10251000460084F8470084F83D00002010BD00000C
:102520007047000090F83D1001291DD1022180F86C
:102530003D10016842F6FF32C868C4F201029142C0
:1025400040F00100C86011DCB1F1804F20D040F2B2
:102550000040C4F2000081421AD040F60000C4F2EC
:102560000000814214D020E00120704742F6004074
:10257000C4F2010081420BD044F20000C4F2010019
:10258000814205D043F20040C4F2010081420CD1E7
:1025900088680722C0F201020240062A4FF00000BC
:1025A000E3D0B2F5803F08BF7047086840F00100F3
:1025B000086000207047000070470000F0B581B04F
:1025C00004460068C5680669B10717D515F0020111
:1025D00014D06FF002010161012121778069800729
:1025E00004D02046FFF7E8FF06E000BF204600F0D9
:1025F0009BF8204600F09AF800202077700719D544
:1026000015F0040016D020686FF00401016102216A
:102610002177806910F4407F04D02046FFF7CCFF7B
:1026200006E000BF204600F07FF8204600F07EF86C
:1026300000202077300717D515F0080014D0206847
:102640006FF00801016104212177C069800703D080
:102650002046FFF7B1FF05E0204600F065F8204670
:1026600000F064F800202077F00619D515F010006E
:1026700016D020686FF01001016108212177C06930
:1026800010F4407F04D02046FFF796FF06E000BF1D
:10269000204600F049F8204600F048F80020207756
:1026A000F00718BF15F0010004D1300605F08007CF
:1026B0000BD412E020686FF001010161204600F0A8
:1026C00037F8300605F0800707D537B120686FF07E
:1026D000800101612046FFF7EDFEF00507D537B117
:1026E00020686FF4807101612046FFF7E1FE7006FB
:1026F00009D515F0400006D020686FF04001016157
:10270000204600F01FF8B0060CD515F0200009D0C7
:1027100021686FF0200220460A6101B0BDE8F04058
:10272000FFF7CABE01B0F0BD70470000704700005F
:10273000006842F60041C4F20101884218BF7047A8
:10274000FEF772BC70470000704700007047000041
:10275000B0B504460068E16FD4F880508268120674
:102760005AD5212958D100BF206850E8020F2168AE
:1027700020F0800041E80202DAB1206850E8020F40
:10278000216820F0800041E8020292B1206850E800
:10279000020F216820F0800041E802024AB120685F
:1027A00050E8020F216820F0800041E80202002A70
:1027B000DAD1206F40B1FEF715FA28B1206FFEF78D
:1027C0005DFA202861D000BF206850E8000F216822
:1027D00020F0C00041E80002DAB1206850E8000FA4
:1027E000216820F0C00041E8000292B1206850E862
:1027F000000F216820F0C00041E800024AB12068C3
:1028000050E8000F216820F0C00041E80002002AD3
:10281000DAD12020E0672068806840064FF0000091
:1028200040F1B180222D18BFB0BD00BF206850E834
:10283000020F216820F0400041E80202DAB120686E
:1028400050E8020F216820F0400041E8020292B1F6
:10285000206850E8020F216820F0400041E80202A1
:102860004AB1206850E8020F216820F0400041E89A
:102870000202002ADAD1606F60B1FEF7B3F948B105
:10288000606FFEF7FBF9202804D11020C4F8840003
:102890000320B0BD206850E8000F216820F490703C
:1028A00041E80002E2B1206850E8000F216820F4FE
:1028B000907041E800029AB1206850E8000F21684A
:1028C00020F4907041E8000252B1206850E8000FF7
:1028D000216820F4907041E80002002ADAD100BF9C
:1028E000206850E8020F216820F0010041E8020250
:1028F000DAB1206850E8020F216820F0010041E8B9
:10290000020292B1206850E8020F216820F0010015
:1029100041E802024AB1206850E8020F216820F025
:10292000010041E80202002ADAD1206E012824D1F8
:10293000206850E8000F216820F0100041E80002F4
:10294000DAB1206850E8000F216820F0100041E85B
:10295000000292B1206850E8000F216820F01000BA
:1029600041E800024AB1206850E8000F216820F0D9
:10297000100041E80002002ADAD12020C4F88000CB
:1029800000202066A066B0BD7047000070B50168E9
:102990000446C8690E6840F62F028B680240202A60
:1029A00006F0200E08D1BEF1000F05D0A16E49B38C
:1029B0002046BDE87040084740F60F02104209D09B
:1029C00040F22012C0F2004203F0010C324012EB40
:1029D0000C0229D1226EC50616D5012A14D116F093
:1029E000100211D0102008628868400626D4B4F87E
:1029F0005800B4F85A10B4F85A20002A18BF884278
:102A000040F0308270BD00BFC20240F1D18013F4AB
:102A1000800200F0CD804FF4801220460A62BDE8AB
:102A20007040FFF793BE00BFC20718BF16F4807254
:102A300040F0CA80820700F1D180DAE0606F01685F
:102A400049688AB2002ADDD0B4F858309A42D9D207
:102A5000A4F85A108069202800F09C80206850E873
:102A6000000F216820F4807041E80002DAB120688C
:102A700050E8000F216820F4807041E8000292B114
:102A8000206850E8000F216820F4807041E80002BF
:102A90004AB1206850E8000F216820F4807041E8B6
:102AA0000002002ADAD1206850E8020F216820F0E5
:102AB000010041E80202DAB1206850E8020F216803
:102AC00020F0010041E8020292B1206850E8020FB4
:102AD000216820F0010041E802024AB1206850E874
:102AE000020F216820F0010041E80202002ADAD139
:102AF000206850E8020F216820F0400041E80202FF
:102B0000DAB1206850E8020F216820F0400041E867
:102B1000020292B1206850E8020F216820F04000C4
:102B200041E802024AB1206850E8020F216820F013
:102B3000400041E80202002ADAD12020C4F88000D7
:102B400000202066206850E8000F216820F0100067
:102B500041E80002DAB1206850E8000F216820F057
:102B6000100041E8000292B1206850E8000F21688F
:102B700020F0100041E800024AB1206850E8000F40
:102B8000216820F0100041E80002002ADAD1606FCD
:102B9000FEF728F802206066B4F85800B4F85A101E
:102BA000401A81B22046BDE87040FFF7CDBD00BF9E
:102BB000010640F11B8116F0800100F01781E16EE3
:102BC00000297FF4F5AE1DE701220A62D4F88420C3
:102BD00042F00102C4F8842082070AD5BCF1000F3C
:102BE00007D002220A62D4F8842042F00402C4F81A
:102BF000842042070AD5BCF1000F07D004220A62E4
:102C0000D4F8842042F00202C4F8842002070AD5D6
:102C10005CEA0E0207D008220A62D4F8842042F04F
:102C20000802C4F8842002050BD516F0806208D093
:102C30004FF400620A62D4F8842042F02002C4F803
:102C40008420D4F88420002A3FF4DCAE800607D527
:102C5000BEF1000F04D0A26E12B120469047216849
:102C6000D4F88400896800F0280001F04001401881
:102C700006D12046FFF788FE0020C4F8840070BD0E
:102C8000206850E8000F216820F4907041E80002AD
:102C9000BAB3206850E8000F216820F4907041E832
:102CA000000272B3206850E8000F216820F4907091
:102CB00041E800022AB3206850E8000F216820F4A0
:102CC000907041E80002002ADAD11AE0206850E84A
:102CD000020F216820F0010041E80202DAB1206809
:102CE00050E8020F216820F0010041E8020292B191
:102CF000206850E8020F216820F0010041E802023C
:102D00004AB1206850E8020F216820F0010041E834
:102D10000202002ADAD1206E012824D1206850E86E
:102D2000000F216820F0100041E80002DAB12068AD
:102D300050E8000F216820F0100041E8000292B135
:102D4000206850E8000F216820F0100041E80002E0
:102D50004AB1206850E8000F216820F0100041E8D7
:102D60000002002ADAD12020C4F88000002020666A
:102D70002168A066886840066ED500BF206850E8CC
:102D8000020F216820F0400041E80202DAB1206819
:102D900050E8020F216820F0400041E8020292B1A1
:102DA000206850E8020F216820F0400041E802024C
:102DB0004AB1206850E8020F216820F0400041E845
:102DC0000202002ADAD1606F002845D044F2D10116
:102DD000C0F600014163FDF72DFF00283FF412AE5D
:102DE000606F416BBDE87040084700BF40067FF54B
:102DF00009AE16F0400008BF70BD00BF206850E863
:102E0000000F216820F0400041E80002DAB120689C
:102E100050E8000F216820F0400041E8000292B124
:102E2000206850E8000F216820F0400041E80002CF
:102E30004AB1206850E8000F216820F0400041E8C6
:102E40000002002ADAD120200021E0672046E16656
:102E5000BDE8704000F082BC2046BDE87040FFF73E
:102E600093BD00BF401A00BF216851E8001F2268CF
:102E700021F4907142E80013BBB3216851E8001FB0
:102E8000226821F4907142E8001373B3216851E87D
:102E9000001F226821F4907142E800132BB32168CF
:102EA00051E8001F226821F4907142E80013002BC2
:102EB000DAD11AE0216851E8021F226821F00101ED
:102EC00042E80213DBB1216851E8021F226821F0B9
:102ED000010142E8021393B1216851E8021F226800
:102EE00021F0010142E802134BB1216851E8021FB1
:102EF000226821F0010142E80213002BDAD12021DF
:102F0000C4F8801000212166A16600BF216851E845
:102F1000001F226821F0100142E80013DBB1216894
:102F200051E8001F226821F0100142E8001393B11C
:102F3000216851E8001F226821F0100142E80013C7
:102F40004BB1216851E8001F226821F0100142E8CE
:102F50000013002BDAD1022281B220466266BDE85E
:102F60007040FFF7F1BB000010B5C0B10446C06F60
:102F700028B9002084F87800204600F025F82420A5
:102F8000E0672068616A026822F00102026011B104
:102F9000204600F073FF204601F0C4FB10B1012071
:102FA00010BD00BF2168486820F4904048608868E0
:102FB00020F02A008860086840F0010220460A607C
:102FC000BDE8104000F0D0BF70B586B0044621685F
:102FD00044F20042C4F2000200209142CDE9040014
:102FE000CDE9020001904FD044F60000C4F2000089
:102FF00081426FD043F60000C4F20100814240F0EC
:10300000B38041F21400C4F202004168002641F48A
:1030100080414160416801F480410091009901685C
:1030200041F400310160006801A900F40030009013
:1030300000984FF4C0600190022002900320049099
:10304000072005904FF090400396FDF709FF3020D0
:10305000C4F2020040F2D0152830C2F200058021EF
:10306000C5E900062846C5E90261C5E90466C5E967
:103070000666FDF757FE002818BFFDF78DFC656753
:103080006C62252468E000BF41F21401C4F2020121
:103090008A6842F400328A608A6802F40032009240
:1030A000009A0A6842F400320A60096801F40031AB
:1030B000009100990C2101910221CDE90210032019
:1030C00004900720059001A94FF09040FDF7C8FE3D
:1030D000262441E041F21400C4F202008168002677
:1030E00041F480218160816801F480210091009980
:1030F000016841F480210160006801A900F480208A
:10310000009000984FF4406001900220029003204C
:1031100004900720059040F20040C4F6000003969A
:10312000FDF79EFE40F214253020C2F20005C4F2E5
:1031300002008021C5E900062846C5E90261C5E90B
:103140000466C5E90666FDF7EDFD002818BFFDF72A
:1031500023FC65676C622724204605210022FEF7C8
:103160000DF82046FDF7F8FF06B070BDB0B5044677
:10317000D0F8800020281CBF0220B0BD96460A4629
:1031800000294FF0010018BFBEF1000F00D1B0BD03
:103190004FF0000CC4F860C02168496809022BD4C4
:1031A00022206265A4F858E0C4F884C0C4F8800006
:1031B000606F00284AD044F26521C0F6000144F255
:1031C000C53344F2E10C00F12807C0F60003C0F655
:1031D000000C87E80A1021680025243173464563F6
:1031E000FDF7EEFD90B31020C4F884002020C4F851
:1031F00080000120B0BD00BF216851E8001F206899
:1032000041F0806140E80013002BC9D0206850E8ED
:10321000000F216840F0806041E80003002BBFD020
:10322000206850E8000F216840F0806041E800030A
:10323000002BB5D0206850E8000F216840F0806076
:1032400041E80003002BD7D1AAE700BF206928B3CB
:10325000206850E8000F216840F4807041E80002C7
:10326000E2B1206850E8000F216840F4807041E826
:1032700000029AB1206850E8000F216840F4807085
:1032800041E8000252B1206850E8000F216840F484
:10329000807041E80002002ADAD100BF206850E8BF
:1032A000020F216840F0010041E80202BAB3206831
:1032B00050E8020F216840F0010041E8020272B3B9
:1032C000206850E8020F216840F0010041E8020246
:1032D0002AB3206850E8020F216840F0010041E85D
:1032E0000202002ADAD11AE0206850E8020F2168B1
:1032F00040F0400041E80202DAB1206850E8020FD5
:10330000216840F0400041E8020292B1206850E894
:10331000020F216840F0400041E802024AB12068F3
:1033200050E8020F216840F0400041E80202002A04
:10333000DAD10020B0BD0000D0F88030202B07D1BA
:1033400000294FF0010318BF002A05D11846704725
:1033500002231846704700BFB0B54FF0000CC0F80C
:1033600060C003685B681B0210D44165A0F8582058
:10337000A0F85A208168C0F868C089B3B1F5805FB1
:1033800032D1016991BB40F2FF1130E0036853E88C
:1033900000EF05684EF0806345E80034002CE4D06F
:1033A000036853E8003F056843F0806345E8003454
:1033B000002CDAD0036853E8003F056843F08063CF
:1033C00045E80034002CD0D0036853E8003F05687E
:1033D00043F0806345E80034002CD7D1C5E700BF37
:1033E000016919B17F2102E0002100E0FF21A0F86E
:1033F0005C100021C0F884102221C0F8801000BFAA
:10340000016851E8021F026841F0010142E802131D
:10341000DBB1016851E8021F026841F0010142E896
:10342000021393B1016851E8021F026841F00101E3
:1034300042E802134BB1016851E8021F026841F0F3
:10344000010142E80213002BDAD182680169B2F56A
:10345000805F07D1D1B344F28151C0F6000181668B
:1034600006E000BF44F28152C0F60002826699B3C2
:10347000016851E8001F026841F4907142E80013AE
:10348000002B55D0016851E8001F026841F490718B
:1034900042E80013002B4BD0016851E8001F02687E
:1034A00041F4907142E80013002B41D0016851E8CB
:1034B000001F026841F4907142E80013002BD7D13D
:1034C0000023BDE8B0401846704700BF44F2E13128
:1034D000C0F60001816600BF016851E8001F026864
:1034E00041F0200142E8001313B3016851E8001FC6
:1034F000026841F0200142E80013CBB1016851E8B5
:10350000001F026841F0200142E8001383B1016806
:1035100051E8001F026841F0200142E80013002B2F
:103520004FF00003D8D1BDE8B0401846704700BF47
:103530000023BDE8B040184670470000B0B50068F1
:1035400044F20041C4F2000188423BD140F27000D5
:10355000C2F200000468002C08BFB0BD20780A2821
:103560001ED16288211D00258D542079242815D173
:103570006079472812D1A0794E280FD1E0795228DE
:103580000CD1207A4D2809D1607A432806D140F227
:10359000A420C2F200000A2300F018F8658006E0BB
:1035A0006188302903D84A1C21446280087140F2A6
:1035B0002C30C2F2000021460122BDE8B040FFF7E6
:1035C000BBBE00BFB0BD0000704700002DE9F04158
:1035D0000446C06F20281CBF0220BDE8F0810D46C4
:1035E00000294FF0010000F0B6801646002A08BFFF
:1035F000BDE8F0810020C4F8840021209846E067EF
:10360000FDF70CFDA4F85060A4F85260A1680646CE
:10361000B1F5805F02D1206900286BD02F460025CC
:10362000B4F8520000286BD018F101001CD0B8F19A
:10363000000F3DD121680BE017F8010B0885B4F8A5
:1036400052000138A4F85200B4F85200002858D0B3
:10365000C869000640F17A80002FEDD135F8020BE1
:1036600000276FF35F20E9E7216802E0C8690006E0
:1036700009D4C869000606D4C86900065CBFC869D9
:103680005FEA0060F2D51FB117F8010B05E000BF3B
:1036900035F8020B00276FF35F200885B4F852005D
:1036A0000138A4F85200B4F852000028E1D128E013
:1036B000216800BFC869000608D4FDF7AFFC801B75
:1036C000404545D821680868F4E700BF17B117F8EE
:1036D000010B04E035F8020B00276FF35F2008852B
:1036E000B4F852000138A4F85200B4F8520000288F
:1036F000E0D106E00027B4F8520000287FF494AF30
:103700002168C86940061FD4B8F1000F1ED018F117
:1037100001000FD1C869400616D4C869400613D409
:10372000C869400610D4C86940064FF00000F1D5C2
:103730000FE000BFFDF772FC801B404508D82068F1
:103740000168C0694006F5D5002002E0FDF766FC7F
:1037500003202021E167BDE8F081000070470000F0
:10376000FEE70000FEE7000040F60004C4F6000497
:10377000204601210122FDF74BFC204602210022B8
:10378000FDF746FC4FF4FA6001F054FF2046022199
:103790000122FDF73DFC41F2707001F04BFF40F259
:1037A000B434C2F20004204600F058FA2046FDF777
:1037B0006DF900BF0A2001F03DFFFBE7FEE70000C6
:1037C000EFF30980BFF36F8F144B1A681EF0100FD0
:1037D00008BF20ED108A20E9F04F10602DE90900A4
:1037E0004FF0500080F31188BFF34F8FBFF36F8FFE
:1037F00002F0E2FB4FF0000080F31188BDE8090001
:1038000019680868B0E8F04F1EF0100F08BFB0EC60
:10381000108A80F30988BFF36F8F7047180100206A
:103820002DE9F043B7B08046002004AE8DF81200B9
:10383000ADF8100008463146154601F0EBFCA8B182
:1038400028480DF1180C059026A0071D8ECF406961
:103850008CE88E000A9005A9404615224FF0FF33F0
:10386000FFF7B4FE37B0BDE8F08300BF42F23A0084
:10387000C0F20900039047F26140C2F26100029079
:1038800046F26140C6F22040019040F60D20C6F29B
:1038900052500090694640460F224FF0FF33FFF729
:1038A00095FE012D14DB741E46F2C75600270DF15C
:1038B0001409C0F6000600BF14F8012F09EB070039
:1038C0003146FCF7EBFC013D0744F5D101E000BFB8
:1038D0000027BAB205A940466423FFF777FE37B048
:1038E000BDE8F0830D0A4661696C656420746F2041
:1038F0007265616420646174610000002DE9F04329
:10390000B7B00E46804608461146154601F0BEFC8B
:10391000B0B128480DF1180C059026A0071D8ECFD8
:10392000D0E905608CE88E00CDE90A6005A9404623
:1039300019224FF0FF33FFF749FE37B0BDE8F0839F
:103940004FF41260049044F24940C3F620200390E3
:1039500044F24450C2F24300029040F60D20C4F2FB
:103960004A50019001A940460E224FF0FF33FFF765
:103970002DFE012D14DB741E46F2C75600270DF1F3
:103980001409C0F6000600BF14F8012F09EB070068
:103990003146FCF783FC013D0744F5D101E000BF4F
:1039A0000027BAB205A940466423FFF70FFE37B0DF
:1039B000BDE8F0834661696C656420746F207265B0
:1039C0006164204A454445432049440D0A000000F3
:1039D00040F2B000C2F20000FEF730B8406A0021A9
:1039E000A0F84610C187FEF727B800002DE9F04780
:1039F00082B000261F4690460D4681468DF8036032
:103A0000FDF70CFB381A00EB0807FDF707FB40F247
:103A10000801C2F20001096823225143090DD9F8B7
:103A2000004079430191A168294235D0824618F1BE
:103A3000010035D0B5F5C06F1AD100BF207B8DF8DD
:103A400003009DF80300FDF7E9FAA0EB0A00B84275
:103A50005ED2019801990028A1F101010191D9F8E4
:103A60000010896808BF074611F4C06FE6D112E064
:103A7000FDF7D4FAA0EB0A00B84249D201980199A7
:103A80000028A1F101010191D9F80010896808BF4F
:103A900007462942ECD10026304602B0BDE8F08747
:103AA0000026B5F5C06F25D1207B8DF803009DF869
:103AB0000300A06810F4C06FEDD0207B8DF80300E8
:103AC0009DF80300A06810F4C06FE4D0207B8DF84F
:103AD00003009DF80300A06810F4C06FDBD0207BCA
:103AE0008DF803009DF80300A06810F4C06FDBD1CF
:103AF000D2E700BFA0682842CDD0A0682842CAD033
:103B0000A0682842C7D0A0682842F3D1C4E700BF0C
:103B1000D9E900014268B1F5827F22F0E0024260FB
:103B20000BD1D9F80810B1F5004F02D0B1F5806F74
:103B300003D1016821F040010160D9F82810B1F5E6
:103B4000005F07D1016821F400510160016841F470
:103B500000510160012089F85D00002089F85C00B7
:103B60000326304602B0BDE8F0870000F0B581B012
:103B700015460E460446FDF751FA281A8719FDF737
:103B80004DFA40F20801C2F200010968C1F3CB31DD
:103B90007943009121688A68120622D50546701C77
:103BA00015D000BFFDF73AFA401BB8421CD200986E
:103BB00000990028A1F1010100912168896808BFDE
:103BC00007460806EED40CE08868000609D5886828
:103BD000000606D58868000644BF88685FEA006072
:103BE000F2D4002001B0F0BDD4E900014268B1F583
:103BF000827F22F0E00242600AD1A168B1F5004F55
:103C000002D0B1F5806F03D1016821F0400101605D
:103C1000A16AB1F5005F07D1016821F4005101608C
:103C2000016841F400510160012084F85D0000202A
:103C300084F85C00032001B0F0BD0000064B196859
:103C40000868B0E8F04F80F30988BFF36F8F4FF03A
:103C5000000080F3118870471801002070B59CB0F7
:103C600003AD044628466421FCF752FC0020019075
:103C700045F24140C0F60D200090694620460422DE
:103C80006423FFF7A3FC204629466422FFF76EFA5F
:103C900046F2DD51C0F600012846FCF705FC78B974
:103CA00046F2DD55C0F6000503AE00BF4FF47A7052
:103CB00001F0C0FC30462946FCF7F6FB0028F5D0A1
:103CC0002046FEF745FD1CB070BD000084B040F6F4
:103CD0002150C0F20A00039042F27410C2F2211087
:103CE000029047F25340C7F26120019040F2A420B5
:103CF000C2F2000001A90B224FF47A73FFF766FCB1
:103D0000012001F097FCFBE780B54FF0500080F3F5
:103D10001188BFF36F8FBFF34F8F02F0EBFA30B112
:103D20004EF60450CEF200004FF0805101600020AA
:103D300080F3118880BD00004EF68850CEF200005E
:103D4000016841F4700101607047000040F25820A2
:103D5000C2F20000FEF732BC40F2FF7C0268C4F2FF
:103D6000000C604522DD40F60003C4F200039842D7
:103D700025D043F20043C4F2010398421FD042F61B
:103D80000043C4F20103984219D043F2FF33C4F256
:103D9000010398421DDC60452ADCB0F1804F3DD024
:103DA00040F20043C4F2000336E000BFB0F1804FA0
:103DB00005D040F20043C4F200039842E5D14B68BD
:103DC00022F070021A4343F2FF33C4F20103984217
:103DD000E1DD44F2FF33C4F20103984212DC43F206
:103DE0000043C4F20103984218D044F2000311E0EA
:103DF00040F60003C4F2000398420FD042F600439D
:103E000008E000BF44F60003C4F20103984205D065
:103E100044F20043C4F20103984203D1CB6822F478
:103E200040721A4380B54B6922F0800E8A6843EADB
:103E30000E03D1F800C00360C262A0F18042A2F577
:103E40009632830543EA9222072AC0F828C0BDE8CB
:103E5000804007D8012303FA02F212F0E50F1CBFDD
:103E600009690163012141610169C90708BF704700
:103E7000016921F00101016170470000416A0A07F0
:103E80000ED4CA0717D18A0720D44A0729D4CA06F4
:103E900032D48A063BD480B54A0644D458E000BFE9
:103EA0000268D0F834C0536823F4004343EA0C039B
:103EB0005360CA07E7D00268D0F828C0536823F4DB
:103EC000003343EA0C0353608A07DED50268D0F85A
:103ED0002CC0536823F4803343EA0C0353604A0731
:103EE000D5D50268D0F830C0536823F4802343EA64
:103EF0000C035360CA06CCD50268D0F838C093686A
:103F000023F4805343EA0C0393608A06C3D5026806
:103F1000D0F83CC0936823F4005343EA0C03936049
:103F200080B54A0614D50268D0F840C05368BCF585
:103F3000801F23F4801343EA0C03536008D1D2F8A6
:103F400004C0D0F844E02CF4C00343EA0E035360ED
:103F5000090658BF80BD0168806C4A6822F40022BF
:103F60001043486080BD0000B0B582B00446002018
:103F7000C4F88400FDF752F8216805460A68120764
:103F800035D56FF07E4C20464FF4001100222B46B1
:103F9000CDF800C000F098FE40B300BF206850E8A4
:103FA000000F216820F0800041E80002DAB12068AB
:103FB00050E8000F216820F0800041E8000292B133
:103FC000206850E8000F216820F0800041E80002DE
:103FD0004AB1206850E8000F216820F0800041E8D5
:103FE0000002002ADAD12020E0675FE0216808683B
:103FF000400761D56FF07E4C20464FF480010022CF
:104000002B46CDF800C000F05FFE002854D000BF62
:10401000206850E8000F216820F4907041E8000209
:10402000E2B1206850E8000F216820F4907041E868
:1040300000029AB1206850E8000F216820F49070C7
:1040400041E8000252B1206850E8000F216820F4D6
:10405000907041E80002002ADAD100BF206850E8E1
:10406000020F216820F0010041E80202DAB1206865
:1040700050E8020F216820F0010041E8020292B1ED
:10408000206850E8020F216820F0010041E8020298
:104090004AB1206850E8020F216820F0010041E891
:1040A0000202002ADAD12020C4F880000320002177
:1040B00084F8781002B0B0BD2020E067C4F880001A
:1040C000002020666066002184F8781002B0B0BD40
:1040D000406A0021A0F85A10A0F85210FEF754BC14
:1040E000406A0268C36FD0F880C0916809062DD578
:1040F000212B2BD10021A0F8521000BF016851E8FC
:10410000001F026821F0C00142E80013DBB1016822
:1041100051E8001F026821F0C00142E8001393B18A
:10412000016851E8001F026821F0C00142E8001355
:104130004BB1016851E8001F026821F0C00142E85C
:104140000013002BDAD12021C1670268916849066B
:1041500040F17F80BCF1220F7BD10021A0F85A10E2
:10416000016851E8001F026821F4907142E80013D1
:10417000BBB3016851E8001F026821F4907142E866
:10418000001373B3016851E8001F026821F49071B5
:1041900042E800132BB3016851E8001F026821F4C4
:1041A000907142E80013002BDAD11AE0016851E85F
:1041B000021F026821F0010142E80213DBB101682D
:1041C00051E8021F026821F0010142E8021393B195
:1041D000016851E8021F026821F0010142E8021360
:1041E0004BB1016851E8021F026821F0010142E869
:1041F0000213002BDAD1016E012924D1016851E8A4
:10420000001F026821F0100142E80013DBB10168D1
:1042100051E8001F026821F0100142E8001393B139
:10422000016851E8001F026821F0100142E8001304
:104230004BB1016851E8001F026821F0100142E80B
:104240000013002BDAD12021C0F880100021016674
:104250008166D0F8841041F01001C0F88410FEF798
:1042600093BB00008169406A202900F0A0800021F2
:10427000A0F85A10016851E8001F026821F480710B
:1042800042E80013E3B1016851E8001F026821F41D
:10429000807142E800139BB1016851E8001F026879
:1042A00021F4807142E8001353B1016851E8001F06
:1042B000026821F4807142E80013002BDAD100BFBC
:1042C000016851E8021F026821F0010142E802136F
:1042D000BBB3016851E8021F026821F0010142E806
:1042E000021373B3016851E8021F026821F0010153
:1042F00042E802132BB3016851E8021F026821F063
:10430000010142E80213002BDAD11AE0016851E8FA
:10431000021F026821F0400142E80213DBB101688C
:1043200051E8021F026821F0400142E8021393B1F4
:10433000016851E8021F026821F0400142E80213BF
:104340004BB1016851E8021F026821F0400142E8C8
:104350000213002BDAD12021C0F88010016E012950
:1043600025D100BF016851E8001F026821F010014B
:1043700042E80013DBB1016851E8001F026821F038
:10438000100142E8001393B1016851E8001F026870
:1043900021F0100142E800134BB1016851E8001F01
:1043A000026821F0100142E80013002BDAD100214D
:1043B0004166016E012918BFFFF7C0B8B0F8581068
:1043C000FEF7C2B9406A01214166016E012918BF9A
:1043D000FFF7FAB8B0F858104908FEF7B5B9000071
:1043E000B0F85C200168D0F88030222B40F0C28009
:1043F000898C436D114023F8021B4365B0F85A10B5
:104400000139A0F85A10B0F85A10002918BF7047A7
:10441000016851E8001F026821F4907142E800131E
:10442000E3B1016851E8001F026821F4907142E88D
:1044300000139BB1016851E8001F026821F49071DC
:1044400042E8001353B1016851E8001F026821F4EB
:10445000907142E80013002BDAD100BF016851E8E7
:10446000021F026821F0010142E80213DBB101687A
:1044700051E8021F026821F0010142E8021393B1E2
:10448000016851E8021F026821F0010142E80213AD
:104490004BB1016851E8021F026821F0010142E8B6
:1044A0000213002BDAD12021C0F880100021816690
:1044B000416601684968090225D500BF016851E8D5
:1044C000001F026821F0806142E80013DBB101683F
:1044D00051E8001F026821F0806142E8001393B1A7
:1044E000016851E8001F026821F0806142E8001372
:1044F0004BB1016851E8001F026821F0806142E879
:104500000013002BDAD1016E012918BFFFF716B88E
:1045100000210166016851E8001F026821F01001C6
:1045200042E80013DBB1016851E8001F026821F086
:10453000100142E8001393B1016851E8001F0268BE
:1045400021F0100142E800134BB1016851E8001F4F
:10455000026821F0100142E80013002BDAD1016853
:10456000CA69D20644BF10220A62B0F85810FEF79A
:10457000EBB800BF886940F0080088617047000010
:10458000B0F85C100268D0F88030222B40F0C48074
:10459000928C436D11401970416D01314165B0F845
:1045A0005A100139A0F85A10B0F85A10002918BF53
:1045B000704700BF016851E8001F026821F4907144
:1045C00042E80013E3B1016851E8001F026821F4DA
:1045D000907142E800139BB1016851E8001F026826
:1045E00021F4907142E8001353B1016851E8001FB3
:1045F000026821F4907142E80013002BDAD100BF69
:10460000016851E8021F026821F0010142E802132B
:10461000DBB1016851E8021F026821F0010142E8A4
:10462000021393B1016851E8021F026821F00101F1
:1046300042E802134BB1016851E8021F026821F001
:10464000010142E80213002BDAD12021C0F88010CA
:1046500000218166416601684968090225D500BFCD
:10466000016851E8001F026821F0806142E80013F0
:10467000DBB1016851E8001F026821F0806142E867
:10468000001393B1016851E8001F026821F08061B6
:1046900042E800134BB1016851E8001F026821F0A5
:1046A000806142E80013002BDAD1016E012918BFA6
:1046B000FEF744BF00210166016851E8001F02684F
:1046C00021F0100142E80013DBB1016851E8001F3E
:1046D000026821F0100142E8001393B1016851E82B
:1046E000001F026821F0100142E800134BB101687D
:1046F00051E8001F026821F0100142E80013002B6E
:10470000DAD10168CA69D20644BF10220A62B0F841
:104710005810FEF719B800BF906940F0080090618A
:1047200070470000B0B505460168806805F10C04CB
:104730001CCC184340EA0403D5F81CC00C6849F2AD
:104740000C6024EA0000184340EA0C000860486846
:1047500020F4405010434860A8692A6A8B681043CF
:1047600023F430621043886044F6FF30C4F2000046
:1047700081424FF0100219DD44F60040C4F20000FF
:10478000814227D045F20000C4F20000814229D0C6
:1047900043F60000C4F20100814239D141F23000F9
:1047A000C4F2020001684CA22EE000BF44F20040B7
:1047B000C4F2000081421DD044F60000C4F20000A3
:1047C000814225D141F23000C4F202000068810C20
:1047D00016E000BF41F23000C4F202000068010D93
:1047E0000EE000BF41F23000C4F202000068810D0B
:1047F00006E000BF41F23000C4F202000068010C84
:1048000046F2AC52C0F6000201F0030052F820203C
:1048100041F20020BCF5004FC0F27A000ED1082A08
:104820004FF0010153D8DFE802F0051923521D5261
:1048300052522100FCF7D8FED0B944E0082A4FF0CC
:10484000010144D8DFE802F0062832432C434343F9
:10485000300000BFFCF7C8FE40BB34E0FCF7D8FED8
:1048600030B930E0FCF7E8FE10B92CE04FF400401E
:1048700069684A0802EB4000B0FBF1F04FF6EF72B6
:10488000A0F11001914221D84FF6F0710140C0F320
:104890004200084415E000BFFCF7BAFE30B912E050
:1048A000FCF7CAFE10B90EE04FF4004069684FF6FD
:1048B000EF7200EB5100B0FBF1F0A0F1100191425A
:1048C00004D82968C860002101E000BF012100224E
:1048D0000846AA66EA66B0BD0100000004000000B8
:1048E0000800000002000000ADF5976D40F2A4241E
:1048F000C2F200040DF10809204649464FF47A72CD
:10490000FEF734FC0DF57C7808F101004FF0000B48
:104910004FF0000A01900DE02046FDF719FF2046F8
:1049200049464FF47A72FEF721FC4FF0000A6420EA
:1049300000F080FE00F08EFE616F1FFA8AF30968B6
:104940004968C1F57A718AB29A4203D983468A4688
:1049500003E000BF5FEA0A41E7D0A0EB0B00B0F52F
:104960007A7FE4D30198C721FBF7B0FD1FFA8AF0E4
:1049700004284FF024018DF8F0130FD200220120FB
:10498000002300211AF0030400F06E8119F8027070
:104990003A2F40F0038101212AE100BF20F00304F7
:1049A000002201200023002104E000BF0121043285
:1049B0009442E7D019F802703A2F0FD1012109EB88
:1049C00002077E783A2E19D10121BE783A2E23D1E2
:1049D0000121FF783A2FE9D0B4E000BF0E062BD0BA
:1049E000A7F130060A2E2FD283B2013008F80370E7
:1049F000012309EB02077E783A2EE5D00D063DD063
:104A0000A6F130050A2D3FD283B2013008F80360C9
:104A10000123BE783A2EDBD00D064FD0A6F130052B
:104A20000A2D51D283B2013008F803600123FF78C8
:104A30003A2FBBD086E000BF002109EB02077E7849
:104A40003A2EDBD1C0E700BFDEB2012E56D12C2FAB
:104A5000CAD0A7F141031A2BC6D3202F01D00A2FA9
:104A6000C6D181B23B23013008F801300021002378
:104A700009EB02077E783A2EA6D0BFE70021BE7868
:104A80003A2EC9D1A4E700BFDDB2012D44D12C2EAE
:104A9000BAD0A6F141031A2BB6D3202E01D00A2E8C
:104AA000B6D181B23B23013008F801300021002348
:104AB000BE783A2E3FF48CAFAEE700BF0021FF78FE
:104AC0003A2F3FD172E700BFDDB2012D30D12C2E3D
:104AD000A8D0A6F141031A2BA4D3202E01D00A2E70
:104AE000A4D181B23B23013008F80130002100231A
:104AF000FF783A2F3FF45AAF24E000BF87F00A074F
:104B0000374304BF39463B4609EB02077E783A2E0D
:104B10007FF474AF58E700BF86F00A062E4304BF47
:104B200031463346BE783A2E7FF476AF50E700BF69
:104B300086F00A062E4304BF31463346FF783A2FEB
:104B40003FF434AF0E0609D0A7F130060A2E07D283
:104B500083B2013008F80370012328E7002126E71B
:104B6000DEB2012E12D12C2FF2D0A7F141031A2B65
:104B7000EED3202F01D00A2FEED181B23B2301309A
:104B800008F801300021002311E700BF87F00A0771
:104B9000374304BF39463B4609E700BF0E0609D03C
:104BA000A7F130060A2E07D283B2013008F803704D
:104BB00001231DE000211BE0DEB2012E12D12C2FBB
:104BC000F2D0A7F141031A2BEED3202F01D00A2FE8
:104BD000EED181B23B23013008F8013000210023DF
:104BE00006E000BF87F00A07374304BF39463B465B
:104BF000012C39D04A4457783A2F01D101212BE0BA
:104C00000E060BD0A7F130060A2E09D281B2013070
:104C100008F80170012101231EE000BF00211BE004
:104C2000DEB2012E12D12C2FF0D0A7F141011A29AA
:104C3000ECD3202F01D00A2FECD181B23B230130DD
:104C400008F801300021002306E000BF87F00A07C2
:104C5000374304BF39463B46022C05D092783A2AA6
:104C600018BF5FEA016113D182B240F2A424012A85
:104C7000C2F200047FF650AE18FA80F0232100F84B
:104C8000011C204641464FF0FF33FEF79FFC43E6F0
:104C9000A2F130010A2905D281B2013008F80120C1
:104CA000E2E700BFD9B20129DED12C2AF4D0A2F16B
:104CB00041011A29F0D3202A04D00A2A4FF03B02DE
:104CC000EAD0D1E73B22E7E72DE9F04180460068D2
:104CD0001546C2690E461140891BB1FA81F1490996
:104CE000A94223D1069C2CB3611C29D1C169314052
:104CF000891BB1FA81F14909A94217D1C169314033
:104D0000891BB1FA81F14909A9420FD1C16931402A
:104D1000891BB1FA81F14909A94207D1C169314022
:104D2000891BB1FA81F14909A942DFD00020BDE811
:104D3000F08100BFFCF772F90320BDE8F08100BFED
:104D40001F4607E0C0693040801BB0FA80F0400980
:104D5000A842EBD1FCF762F9C01BA04200F2B08080
:104D6000D8F8000001684907ECD5402EEAD0802E23
:104D7000E8D0C169090700F1A780C1690905E1D53B
:104D80004FF400610162D8F8000050E8000FD8F835
:104D9000001020F4907041E80002002A43D0D8F8B7
:104DA000000050E8000FD8F8001020F4907041E89F
:104DB0000002C2B3D8F8000050E8000FD8F8001085
:104DC00020F4907041E800026AB3D8F8000050E87F
:104DD000000FD8F8001020F4907041E80002002A7B
:104DE000D1D120E0D8F8000050E8020FD8F8001028
:104DF00020F0010041E802020AB3D8F8000050E8B0
:104E0000020FD8F8001020F0010041E80202B2B110
:104E1000D8F8000050E8020FD8F8001020F0010088
:104E200041E802025AB1D8F8000050E8020FD8F861
:104E3000001020F0010041E80202002AD2D1D8F887
:104E4000600001282CD1D8F8000050E8000FD8F8F5
:104E5000001020F0100041E800020AB3D8F800006A
:104E600050E8000FD8F8001020F0100041E80002D0
:104E7000B2B1D8F8000050E8000FD8F8001020F0C8
:104E8000100041E800025AB1D8F8000050E8000FC5
:104E9000D8F8001020F0100041E80002002AD2D11A
:104EA00020200021C8F88000C8F86010C8F86810F9
:104EB000C8F88400032088F87810BDE8F08100BFAE
:104EC0000320BDE8F08100BF08210162D8F800008E
:104ED00050E8000FD8F8001020F4907041E800026C
:104EE000002A44D0D8F8000050E8000FD8F800108D
:104EF00020F4907041E80002CAB3D8F8000050E8EE
:104F0000000FD8F8001020F4907041E8000272B34E
:104F1000D8F8000050E8000FD8F8001020F4907086
:104F200041E80002002AD1D121E000BFD8F80000FA
:104F300050E8020FD8F8001020F0010041E802020A
:104F40000AB3D8F8000050E8020FD8F8001020F09B
:104F5000010041E80202B2B1D8F8000050E8020FA7
:104F6000D8F8001020F0010041E802025AB1D8F848
:104F7000000050E8020FD8F8001020F0010041E8CE
:104F80000202002AD2D1D8F8600001282CD1D8F82A
:104F9000000050E8000FD8F8001020F0100041E8A1
:104FA00000020AB3D8F8000050E8000FD8F800104B
:104FB00020F0100041E80002B2B1D8F8000050E83B
:104FC000000FD8F8001020F0100041E800025AB19C
:104FD000D8F8000050E8000FD8F8001020F01000BA
:104FE00041E80002002AD2D12020C8F88000002029
:104FF0000821C8F86000C8F86800C8F8841088F86C
:1050000078000120BDE8F08140F2A420C2F2000047
:10501000FDF7BCBC40F22C30C2F20000FDF7B6BC7C
:1050200040F2B430C2F20000FDF7B0BCFEE7000071
:10503000B0B582B005208DF807004FF090404FF4D6
:1050400000410022FBF7E4FF40F2B000C2F2000092
:105050000DF10701012264230124FCF76FFF58B111
:105060004FF090404FF4004101220124FBF7D0FFA4
:10507000204602B0B0BD00BF40F2B000C2F2000056
:105080000DF1060101226423FCF736FE05464FF0C0
:1050900090404FF400410122FBF7BAFF9DF8060053
:1050A000002D08BF00F00104204602B0B0BD000092
:1050B0002DE9F04F85B004460620154688468DF848
:1050C00011004FF090404FF400410022FBF7A0FF89
:1050D00040F2B000C2F200000DF111010122642380
:1050E000FCF72CFF4FF090404FF400410122FBF7FA
:1050F0008FFF002D00F08A8040F2B007C2F2000757
:105100004FF005090DF1130607E000BF019DDDF822
:105110000880B5EB0A05D04474D002208DF80D004C
:10512000200C8DF80E00200A8DF80F00E0B2C0F5BB
:10513000807A4FF090404FF4004100228DF81040EB
:105140005545019538BFAA46FBF762FF38460DF179
:105150000D0104226423FCF7F1FE30B91FFA8AF234
:10516000384641466423FCF7E9FE00904FF090403A
:105170004FF400410122CDF80880FBF749FF544469
:10518000FBF74CFF804600BF4FF090404FF40041CA
:1051900000228DF81390FBF73BFF38463146012281
:1051A0006423FCF7CBFE58B14FF090404FF4004120
:1051B00001220125FBF72CFFFBF730FFDDB9A5E746
:1051C00038460DF1120101226423FCF795FD834658
:1051D0004FF090404FF400410122FBF719FF0125E9
:1051E0009DF81200BBF1000F08BF00F00105FBF7AE
:1051F00015FF002D8AD0A0EB0800B0F57A7FC3D34D
:1052000084E700BF5DF8140BBDE8F08F05B0BDE882
:10521000F08F000070B582B00C4603218DF80410A9
:10522000010C8DF80510010A15468DF806108DF851
:1052300007004FF090404FF400410022FBF7E8FEDA
:1052400040F2B000C2F2000001A904224FF4FA7348
:10525000FCF774FE064618B1304602B070BD00BFC0
:1052600040F2B000AAB2C2F2000021464FF4FA6345
:10527000FCF742FD06464FF090404FF400410122FA
:10528000FBF7C6FE304602B070BD0000B0B582B07C
:1052900004469F2003298DF8070003DA01252846DC
:1052A00002B0B0BD4FF090404FF400410022FBF738
:1052B000AFFE40F2B000C2F200000DF10701012282
:1052C0006423FCF73BFE054648B940F2B000C2F249
:1052D0000000214603226423FCF70EFD05464FF033
:1052E00090404FF400410122FBF792FE284602B0A5
:1052F000B0BD000070B582B020218DF80310010C04
:105300008DF80410010A8DF8060006208DF80510AE
:105310008DF807004FF090404FF400410022FBF75A
:1053200077FE40F2B004C2F200040DF107012046FE
:1053300001226423FCF702FE4FF090404FF400413D
:105340000122FBF765FE4FF090404FF40041002230
:10535000FBF75EFE0DF10301204604226423FCF7F7
:10536000EDFD04464FF090404FF400410122FBF761
:105370004FFEFBF753FE0546FFF75AFE0646FBF7C6
:105380004DFE1EB1401BB0F57A7FF5D3204602B02A
:1053900070BD00009EB0FBF755FE14AC201D24210B
:1053A000FBF7B6F8684604303821FBF7B1F8022065
:1053B00014900120189010201990002520461B956C
:1053C000FCF766F920B1EFF3108072B6FEE700BF7C
:1053D0000F20CDE90F050FA80021CDE91155139538
:1053E000FCF70EF820B1EFF3108072B6FEE700BFB5
:1053F0000720009000276846CDE902770497FBF765
:10540000F9FE28B1EFF3108072B600BFFEE700BFCF
:1054100041F214060497C4F20206306840F6000513
:1054200040F4002030603068C4F6000500F400202D
:1054300014901498306844F2004840F40030306012
:10544000306840F2071100F400301490149830686E
:10545000002240F4802030603068C4F2000800F47C
:10546000802014901498284640F2071AFBF7D0FDCC
:10547000A5F580642046022100224FF00209FBF7C7
:10548000C7FDEB46CDF800A04FF0010A284659466B
:10549000CDE901A70397FBF7E3FC1020CDE9000756
:1054A000284659460297FBF7DBFC20465946CDE9D2
:1054B000009ACDE90277FBF7D3FC3068052140F074
:1054C000010030603068002200F001000090009878
:1054D0000D20FBF753FE0D20FBF73EFE0F200521AC
:1054E0000022FBF74BFE0F20FBF736FE40F2A42014
:1054F00008F57441C2F200000C234FF4E13280E859
:105500008600C0E90377C0E90537C0E9077747623D
:10551000FDF72AFD20B1EFF3108072B6FEE700BF61
:1055200040F2AC04C2F2000408F56C41204640F899
:10553000041F4FF4827100254FF4E062C0E90115A9
:1055400000F10C014FF4802381E804060721C0E933
:1055500006350562C0E90955C0E90B154563FCF73E
:1055600003FB28B1EFF3108072B600BFFEE700BF67
:1055700040F22C30C2F200004FF416510C26C0E964
:105580000081C0E90255C0E90456C0E90655C0E9EA
:105590000855FDF7E9FC28B1EFF3108072B600BFA3
:1055A000FEE700BF40F2B43008F58061C2F20000AF
:1055B00000234FF4E13280E80E00C0E90333C0E974
:1055C0000563C0E907334362FDF7CEFC20B1EFF37A
:1055D000108072B6FEE700BF0F480DF1040C00907A
:1055E0000DA0071D8ECFD0E905608CE88E00CDE9B7
:1055F00005606846002100F039F82060FBF774F878
:10560000FBF776F9FBF7DCF8FBF724F9FBF78EF8EC
:1056100000F01AF8FEE700BFE1650008CD3C000885
:1056200000000000000000008000000000000000FA
:105630000000000080B580B2012898BF012000F072
:1056400003FC002080BD000080B500F049FC002074
:1056500080BD000080B5EFF3058018B100F038FE82
:1056600080BD00BF00F028FE80BD0000B0B584B052
:1056700043698E4693B1846984B10589D0E9001CE1
:10568000026928B2843D18BFC51CCDE900536046AD
:105690007346029400F0D6FD04B0B0BD0589D0E990
:1056A0000013028A28B2843D18BFC51C03AC1846FB
:1056B0007346CDE9005400F095FD0399012818BF09
:1056C0000021084604B0B0BD2DE9F041044600F0C9
:1056D000FDFA40F21416C2F20006706940F23C4531
:1056E000013070617068C2F2000548B1B0690028ED
:1056F00040D17068E16AC06A884298BF746039E03E
:1057000074607069012835D1284600F083FA05F1EC
:10571000140000F07FFA05F1280000F07BFA05F193
:105720003C0000F077FA05F1500000F073FA05F143
:10573000640000F06FFA05F1780000F06BFA40F2B7
:10574000A818C2F20008404600F064FA08F11407F5
:10575000384600F05FFA06F1600000F05BFA06F1EF
:10576000380000F057FA06F14C0000F053FAC6F882
:105770002C803763B068F16801220131F160E16A81
:105780008A401043B06001EB810005EB8000211DD1
:1057900000F084FA00F0BEFAB06988B17068E16A7E
:1057A000C06A884228BFBDE8F0814EF60450CEF2B0
:1057B00000004FF080510160BFF34F8FBFF36F8F38
:1057C000BDE8F08140F2141540F23C464EF6045814
:1057D000C2F20005C2F20006CEF200084FF0805778
:1057E00003E000BF204600F0ADFA2869D0B100F018
:1057F0006DFA686CC468201D00F0ECF96869013826
:10580000686128690138286100F084FA94F8510031
:105810000228EAD00128E5D070B9206B00F092FA96
:10582000E0E700BF30680228DFD3C8F80070BFF39C
:105830004F8FBFF36F8FD8E74FF0500080F3118880
:10584000BFF36F8FBFF34F8FFEE700002DE9F047E6
:105850000A9F8246386BDDF8248000EB82000A78CC
:10586000089C87F834200A7804389946002A20F0EA
:1058700007064BD0487887F835004878002845D08F
:10588000887887F83600887800283FD0C87887F86D
:105890003700C878D0B3087987F838000879A8B3FA
:1058A000487987F83900487980B3887987F83A00D1
:1058B000887958B3C87987F83B00C87930B3087A3B
:1058C00087F83C00087A08B3487A87F83D00487AA0
:1058D000E0B1887A87F83E00887AB8B1C87A87F84C
:1058E0003F00C87A90B1087B87F84000087B68B118
:1058F000487B87F84100487B40B1887B87F84200AD
:10590000887B00281CBFC87B87F843000025381D12
:1059100087F84350062C28BF0624FC62C7E91145CE
:1059200000F084F907F1180000F080F984F0070016
:105930003883304651464A463F617F62FD6487F8AE
:10594000505000F035F9B8F1000F386018BFC8F8B2
:105950000070BDE8F087000008480068006880F328
:1059600008884FF0000080F3148862B661B6BFF378
:105970004F8FBFF36F8F00DF00BF000008ED00E026
:1059800081B00020009040F20C00C2F200000068DC
:105990004FF0500181F31188BFF36F8FBFF34F8F2A
:1059A000013007D0FEE700BF009830B9009820B959
:1059B000009810B900980028F6D001B07047000098
:1059C00070B5044600F0F0FA40F2881CC2F2000CF8
:1059D000DCF8040050B19CF80000002818BF4FF01C
:1059E00000404FF0000554BB85E000BF40F2C840C6
:1059F000C2F20000420700F5205200F1070122F038
:105A0000070218BF21F007000021A2F10803CCF81B
:105A10001000CCF81410CCF8043042E90211DCF884
:105A20000420191AC0E9002101208CF800004FF071
:105A30000040CCE90211002C4FF000055BD0204063
:105A400059D124F0070000F11002600708BF04F1EB
:105A50000802DCF80800511E81424CD2604650F822
:105A600010EFDEF8045095422BD2DEF80010B9B1E9
:105A700074464D68954217D20B68ABB15D6895428C
:105A800016D21868A0B14568954215D204689CB139
:105A90006568954214D22168A6460029E9D110E034
:105AA0000CF110000DE000BF8E46204609E000BF5B
:105AB0009E46084605E000BF8646184601E000BF46
:105AC000A646DCF804108E4514D00168DEF80040CC
:105AD000AB1A112B04604DD30EEB0205680719D0E9
