:020000040800F2
:10000000E82000205D020008652C00085D2C000837
:10001000612C00087D0600085D3A00080000000021
:100020000000000000000000000000000131000896
:100030007107000800000000692C00085D3100080D
:1000400077020008770200087702000877020008AC
:10005000770200087702000877020008770200089C
:10006000770200087702000877020008770200088C
:1000700077020008590700087702000865070008A2
:10008000770200087702000877020008770200086C
:10009000770200087702000877020008770200085C
:1000A00077020008A13100087702000877020008F3
:1000B000770200087702000877020008770200083C
:1000C000770200087702000877020008952E0008E2
:1000D00077020008393A0008453A0008513A00080A
:1000E000770200087702000877020008770200080C
:1000F00077020008770200087702000877020008FC
:10010000000000000000000000000000770200086E
:1001100077020008770200087702000877020008DB
:1001200077020008770200087702000877020008CB
:1001300077020008770200080000000000000000BD
:10014000770200087702000877020008000000002C
:10015000000000000000000000000000000000009F
:10016000000000000000000077020008770200088D
:1001700077020008000000000000000000000000FE
:10018000000000007702000800F002F800F057F8C5
:1001900014A696E8000CB244B344DA4501D100F04D
:1001A0004EF8BAE80F000FA696E83000A5EB04055C
:1001B00004EB0607AAEB0704A7F101074FEA1515A0
:1001C0004FEA3414A4F10104AC4201D300F037F833
:1001D00013F0010F18BFFB1A43F0010300F001F800
:1001E000DBE71847C84D0000E84D0000103A24BF77
:1001F00078C878C1FAD8520724BF30C830C144BF8C
:1002000004680C6070470000704700000023002461
:1002100000250026103A28BF78C1FBD8520728BF16
:1002200030C148BF0B607047782900F0758000200E
:1002300070471FB504F048FE1FBD10B510BD00F09B
:10024000D4F91146FFF7F5FF03F0BCFD00F0F2F919
:1002500003B4FFF7F2FF03BC00F0FAF90948804746
:1002600009480047FEE7FEE7FEE7FEE7FEE7FEE798
:10027000FEE7FEE7FEE7FEE704480549054A064BB0
:10028000704700008D31000889010008E81A00203D
:10029000E8200020E81C0020E81C00200FB41CB55A
:1002A000084B06AA7B4469460090059800F085F942
:1002B00004460020694600F093F920461CBC5DF816
:1002C00014FB00003903000070B50446856900681E
:1002D000C10601D5302600E02026C00707D070BD3A
:1002E000D4E9012130469047206A401C20626D1EEF
:1002F000F6D570BD70B5044685690078C00707D192
:1003000070BDD4E9012120209047206A401C206262
:100310006D1EF6D570BD000070B504460D46214631
:100320001068AFF300802188090502D50F4A7A448E
:1003300002E00E4A7A440E32002104F1240305E063
:1003400000F00F060009965D5E54491C0028F7D1A5
:1003500020780023000704D5702D02D009B10223B4
:1003600011322046BDE8704000F0C8B8B04B000024
:100370002DE9F05F894604464FF0000ADFF824B10A
:10038000FB44C0F820A02046E168884700287DD0C3
:10039000252806D0D4E901219047206A401C20621C
:1003A000F1E700255F462046E16888472028064699
:1003B00007DB312E05D2B81910F8200C08B105431F
:1003C000F1E7A80701D525F00405C4F81CA0002713
:1003D000C4F818A02A2E09D0304604F06EFD38B3B8
:1003E00004EB8708303EC8F8186019E059F8041B80
:1003F000204604EB87029161E1688847012F064699
:1004000018D1E069002820DA25F020051DE0D8F891
:10041000180000EB800006EB40003038C8F81800E8
:100420002046E1688847064604F047FD0028EED1E3
:10043000012F0AD02E2E08D12046E16888477F1C64
:100440000646022F45F02005C4DBA069002803DA28
:10045000404245F00105A061E80701D025F01005F4
:10046000A6B1A6F14100192802D8203645F400654E
:100470004A463146204625604D46FFF7D5FE60B11D
:10048000012807D0ED1D25F0070000E007E000F18E
:10049000080978E705F1040975E730467AE7206A2C
:1004A000BDE8F09F864B00004FF0000200B51346F8
:1004B00094469646203922BFA0E80C50A0E80C5084
:1004C000B1F12001BFF4F7AF090728BFA0E80C5035
:1004D00048BF0CC05DF804EB890028BF40F8042B2E
:1004E00008BF704748BF20F8022B11F0804F18BF9B
:1004F00000F8012B70477047704770472DE9F047AF
:100500000D4699469246044600F124080168880683
:1005100004D5E06921F01001216000E00120A8422B
:1005200001DD471B00E00027A1697A1902EB0900F1
:10053000081AA0612078C00602D42046FFF7C4FE46
:10054000002608E0D4E901211AF806009047206A45
:10055000401C761C20624E45F4DB2078C0060AD58C
:100560002046FFF7B1FE06E0D4E901213020904794
:10057000206A401C2062381EA7F10107F4DC07E066
:10058000D4E9012118F805009047206A401C206238
:10059000281EA5F10105F3DC2046FFF7ABFE20780D
:1005A000000602D50220BDE8F0870120FBE700002D
:1005B00001694A1C02610878704700B58FB0CDE927
:1005C00001310021059105497944CDE90310114617
:1005D0006846FFF7CDFE0FB000BD0000E5FFFFFF4E
:1005E0000A6802F8010B0A607047754600F02CF8A3
:1005F000AE4605006946534620F00700854618B010
:1006000020B5FFF739FEBDE820404FF000064FF05F
:1006100000074FF000084FF0000BAC46ACE8C009F3
:10062000ACE8C009ACE8C009ACE8C00921F007019A
:100630008D46704710B50446AFF300802046BDE8F4
:100640001040FFF705BE0000004870471000002072
:1006500001491820ABBEFEE72600020070470000EB
:1006600040F60004C4F6000420464FF4807100F008
:1006700091FA4FF4FA7003F0EFFCF5E7FEE70000A3
:1006800080B588B0084802AF019007A000F1040EC1
:100690009EE80E50806987E80E50079001A800215F
:1006A00003F0EAFC08B080BD8C4F0008610600082A
:1006B00001000000000000008000000000000000B9
:1006C0000000000080B58EB0164808AF079015A056
:1006D00000F1040E9EE80E50806987E80E500D90E0
:1006E00007A8002103F0C8FC10B10EB080BD00BF08
:1006F00013480DF1080E019011A000F1040C40699F
:100700009CE80E10069040F268208EE80E10C2F2AF
:10071000000001A914224FF0FF3302F0D5F90EB00A
:1007200080BD00BF984F000881070008000000004E
:100730000000000080000000000000000000000039
:10074000466C617368207461736B206661696C65C7
:1007500064210D0A0000000040F2D810C2F200002F
:1007600000F0A8B840F29410C2F2000000F0A2B865
:1007700070470000EFF3108072B600BFFEE7000084
:1007800086B000208DF80200ADF800006846032115
:1007900002F010FB44F61C70C0F6000090E80E104A
:1007A00000690DF1040E05904FF480708EE80E1074
:1007B00003F0B8FA48B140F26820C2F2000001A983
:1007C00012224FF0FF3302F07FF969464FF4807038
:1007D000032203F085F9B8B144F63070C0F600008A
:1007E00090E80E1000690DF1040E059040F26820AB
:1007F0008EE80E10C2F2000001A910224FF0FF3364
:1008000002F062F906E000BF4FF48070032102F0AD
:100810005BFA00BF0A2003F01FFCFBE7002804BFBF
:100820000120704790F82110022917D10168D0E902
:100830000FC30A6822F00E020A600A6822F0010261
:100840000A60012101FA03F2CCF8042080F821109B
:100850000021002280F8202008467047042181638F
:100860000121002280F820200846704790F82110CE
:1008700002291BD180B50268416BD0E90FCE136805
:10088000002923F00E031360136823F001031360A3
:100890004FF0010202FA0EF2CCF804204FF48072FD
:1008A000028418BF8847002080BD00BF04218163F7
:1008B00001207047B0B5D0E90FC30268DCF8001022
:1008C0000424D2F800E09C400C4218BF1EF004053E
:1008D00020D102249C400C4218BF1EF0020527D1F3
:1008E000D940090722D51EF0080108BFB0BD116824
:1008F00021F00E011160012101FA03F2CCF804206D
:100900008163016B4FF48072028479B1BDE8B0401D
:10091000084700BF1168890603D4116821F004015B
:100920001160CCF80440C16A0029EFD1B0BD00BF0E
:100930001168890606D4116821F00A0111600121AD
:1009400080F82110CCF80440816A0022002980F848
:100950002020DBD1EAE70000002804BF0120704717
:100960002DE9F04740F2000C0168C4F2020C4FF68A
:10097000F8320CF58163CBF6FD72994238BF02F56F
:1009800080624CF6CD430A44CCF6CC43A2FB032E46
:1009900000F1040A00F110089AE8040698E8E00162
:1009A0000B6843F6F07423EA040342EA030242EAC6
:1009B000090242EA0A0242EA050242EA060242EA61
:1009C000070242EA08020A600CF580616FF0030238
:1009D0003CBF0021C4F2020102EA9E02C0E90F12EC
:1009E00000214FF4807281630284BDE8F04708461D
:1009F000704700002DE9F04F82B00D68002D00F027
:100A0000C58000F13847860546EA972741F200067F
:100A1000C4F60006052240F2004EB04208BF042290
:100A2000C4F2010E042F38BF3A464FF0000C0124E7
:100A300000270026009209E00D68013635FA06F21B
:100A400007F102070CF1040C00F0A08004FA06FB89
:100A500015EA0B08F0D0D1F804A003230AF003052F
:100A60006A1EBB40012A6FEA03090FD88268CB686F
:100A700002EA0902BB401A4382604268CAF30013CB
:100A800022EA0B02B3401A43426003E0032D01D176
:100A900003251FE0C2688B6802EA0902BB401A43C3
:100AA000022DC26016D16FF0030202EA5602024420
:100AB0000CF01C050F23D2F820A003FA05FB0B69EC
:100AC0002AEA0B0AAB4043EA0A031362D1F804A0F6
:100AD0000AF00305026805FA07F302EA09021A435D
:100AE0001AF4403F0260A7D041F21803C4F2020397
:100AF0001A684FF6084A42F001021A601A68CFF6E7
:100B0000FF7A02F001020192019A26F00302724478
:100B100052F80A900CF00C050F23009CAB4029EA18
:100B2000030304FA05F52B4342F80A30DEF80820E7
:100B30004B6842EA080540F20C49DC0258BF22EA41
:100B40000805CEF80850C4F20109D9F800209D022A
:100B500042EA080458BF22EA0804C9F80040DEF857
:100B600004209D0342EA080458BF22EA0804CEF894
:100B70000440DEF80020DB0342EA080458BF22EA02
:100B80000804CEF80040012456E700BF02B0BDE8DB
:100B9000F08F0000426902EA0103914341EA0341F8
:100BA000816170471823002A08BF2823C15070476D
:100BB00041F68C00C2F200000068704740F200006D
:100BC00041F68C01C2F20000C2F2000100780A680E
:100BD000104408607047000080B542F20000C4F283
:100BE0000200016841F010010160032000F0BCF830
:100BF0000F2000F005F800F05BF8002080BD000039
:100C0000B0B586B041F21801C4F202010A68044688
:100C100042F400620A60096801A801F400610191D0
:100C20000199694600F088FA00F0BCFA4DF683613C
:100C3000C4F21B31A0FB01014FF0FF3000EB9141EA
:100C400040F21C2042F60042C2F20000C4F201024F
:100C500040F2E7330025C0E90021C0E902530561F5
:100C6000856101F0F5F9054610B1284606B0B0BD22
:100C700040F21C20C2F2000001F01EFA05460028D6
:100C8000F3D1192000F032F80F2C0DD8192021468D
:100C90000022002500F03CF840F20400C2F20000FF
:100CA0000460284606B0B0BD0125284606B0B0BD98
:100CB00082B041F21800C4F202000168002241F043
:100CC00001010160016801F0010101910199416890
:100CD00041F08051416040680F2100F08050009049
:100CE00000986FF0010002B000F012B8002848BF71
:100CF000704700F01F01012202FA01F11C2202EAF2
:100D0000D0004EF20012CEF2000281507047000077
:100D100010B54EF60C5CCEF2000CDCF80030C3F3DC
:100D2000022E8EF00704042C28BF0424BEF1030316
:100D30004FF0FF3E0EFA04F438BF0023A143994060
:100D40000EFA03F39A43114300F00F0200F16043DF
:100D50000901043A03F564436244002848BF02F1E4
:100D60000C03197010BD00004EF60C51CEF20001BC
:100D70000A684FF6FF031A4060F30A2242F08060CF
:100D800040F0FD70086070472DE9F04182B00446E4
:100D9000807841F23006C007C4F2020656D056F8F9
:100DA000140C5FEAC0080BD456F8140C40F08050C5
:100DB00046F8140C56F8140C00F08050019001987D
:100DC00047F20007C4F200073868C00512D438683B
:100DD00040F480703860FFF7EBFE05463868C005C8
:100DE00008D4FFF7E5FE401B6428F7D9032002B0C2
:100DF000BDE8F08156F8100C10F4407015D0616811
:100E000001F44071884210D056F8100C40F2404274
:100E1000C4F24222012320F4407113600023C00772
:100E2000136046F8101C40F0A18056F8100C616861
:100E300020F440700843B8F1000F46F8100C05D4B8
:100E400056F8140C20F0805046F8140C2068C107A6
:100E500022D1810728D441072ED4810634D48103BE
:100E60003AD4410642D4010748D4C1064ED4810584
:100E700054D401065CD4C10564D4C1046CD480048C
:100E800005D53068616B20F40070084330600020A5
:100E900002B0BDE8F08100BF3168A26821F0030113
:100EA000114331608107D6D53168E26821F44031C1
:100EB000114331604107D0D53168226921F44021C6
:100EC000114331608106CAD53168E26921F0100111
:100ED000114331608103C4D556F82C1CA26B21F458
:100EE0008001114346F82C1C4106BCD53168226AAA
:100EF00021F02001114331600107B6D531686269E4
:100F000021F4401111433160C106B0D53168A269A6
:100F100021F44001114331608105AAD556F82C1CFB
:100F2000E26A21F40001114346F82C1C0106A2D507
:100F300056F8041C626A21F4F871114346F8041C47
:100F4000C1059AD556F8041CA26A21F478511143C0
:100F500046F8041CC10492D53168226B21F48071DB
:100F60001143316080048CD491E700BFFFF720FE6D
:100F7000054641F2883700BF56F8100C80073FF550
:100F800054AFFFF715FE401BB8424FF00300F3D9F2
:100F90007EE70000002804BF012070472DE9F043E0
:100FA00081B042F20008C4F202080446D8F80000FA
:100FB0000D4600F0070088420CD2D8F8000020F05F
:100FC00007002843C8F80000D8F8000000F0070028
:100FD000A8425ED1206841F204098107C4F20209E7
:100FE00007D5D9F80010A26821F0F0011143C9F823
:100FF0000010C00744D1D8F8000000F00700A84254
:101000000CD9D8F8000020F007002843C8F80000E9
:10101000D8F8000000F00700A8423AD12068410744
:1010200007D5D9F80010E26821F4E0611143C9F84E
:101030000010000708D5D9F80000216920F460509D
:1010400040EAC100C9F80000D9F8002002F00C0005
:10105000082841F20020C0F27A0051D144F65C73B6
:10106000C2F38341C0F60003595CD9F82830D2039B
:101070003CD440F60010C0F23D00484340E000BFC1
:10108000606802280AD001282AD159F8041C890373
:1010900008D4012001B0BDE8F08300BF59F8041C5A
:1010A0008901F6D5D9F8001021F003010843C9F8E9
:1010B0000000FFF77DFD064641F28837D9F80000B1
:1010C000616800F00C00B0EB810F94D0FFF770FD69
:1010D000801BB842F2D9032001B0BDE8F08300BF05
:1010E00059F8041C8907D4D5DCE700BF03F00F02D0
:1010F00044F66C73C0F600039A5CB0FBF2F0484310
:10110000D9F8001044F64472C1F30311C0F600028E
:10111000515C40F2080220FA01F140F20400C2F2F0
:1011200000000068C2F200021160FFF769FD0020B4
:1011300001B0BDE8F08300000F22026041F204021A
:10114000C4F20202136803F003034360136803F060
:10115000F0038360136803F4E063C36012684FF424
:10116000E06303EAD202026142F20000C4F202002C
:10117000006800F0070008607047000040F20800B7
:1011800041F20401C2F20000C4F2020100680968E1
:1011900044F65472C1F30221C0F60002515CC8400B
:1011A0007047000040F2080041F20401C2F2000062
:1011B000C4F202010068096844F65472C1F3C22106
:1011C000C0F60002515CC8407047000041F2040CB8
:1011D000C4F2020CDCF8003003F00C00082841F2E5
:1011E0000020C0F27A0018BF704744F65C71C3F368
:1011F0008342C0F600018A5CDCF82810DB0305D4CA
:1012000040F60010C0F23D005043704744F66C7346
:1012100001F00F01C0F60003595CB0FBF1F0504340
:1012200070470000002804BF012070472DE9F041FD
:1012300082B00446007841F20006C007C4F20206FC
:101240000CD0706800F00C00042840F07F803068FB
:10125000800303D56068002800F03481207880077F
:101260001BD5706810F00C0F09D0706800F00C00EE
:10127000082840F09F807068C00300F19B803068B0
:10128000800703D52069012840F01C81306861691E
:1012900020F0F80040EAC10030602078000713D445
:1012A000207840072AD4E569002D00F00681706897
:1012B00000F00C00082840F0C180012D40F0F280C1
:1012C000012002B0BDE8F081A069002800F09E80F6
:1012D0000020C4F242200121C0F88014FFF768FC0E
:1012E000054600BF706A8007DAD4FFF761FC401B37
:1012F0000228F7D9032002B0BDE8F081F0695FEA67
:10130000C00808D4F06940F08050F061F06900F046
:1013100080500190019847F20007C4F20007386836
:10132000C00561D4386840F480703860FFF740FC35
:10133000054600BF3868C00556D4FFF739FC401B8E
:101340006428F7D9032002B0BDE8F081706800F08E
:101350000C00082803D17068C0033FF578AF6068BF
:10136000B0F5A02F00F0F080B0F5803F00F0F080E5
:10137000002840F0F180306820F480303060306820
:1013800020F480203060F06AA16820F00F0008434C
:10139000F062FFF70DFC0546306880037FF55EAF15
:1013A000FFF706FC401B64284FF00300F4D902B09D
:1013B000BDE8F0812069002840F20000C4F242201C
:1013C0005ED001210160FFF7F3FB0546306880071E
:1013D0003FF55CAFFFF7ECFB401B0228F6D903207A
:1013E00002B0BDE8F08100BFE06800286ED005289B
:1013F00000F08680012800F08780306A20F001002C
:101400003062306A20F0040081E000BF0020C4F2A6
:1014100042200021C0F88014FFF7CAFB054600BF38
:10142000706A80077FF53CAFFFF7C2FB401B0228C4
:10143000F6D9032002B0BDE8F08100BF0027C4F256
:10144000422700203866FFF7B3FB022D05460BD17B
:101450003068800140F1A080FFF7AAFB401B022802
:101460004FF00300F4D9A2E73068800125D5FFF7DB
:101470009FFB401B02284FF00300F5D997E700BF00
:1014800000210160FFF794FB054600BF306880072C
:101490007FF503AFFFF78CFB401B02284FF00300E2
:1014A000F4D984E77068216A00F480328A4209D155
:1014B000616A00F47010884204D1002002B0BDE8D7
:1014C000F08100BF012002B0BDE8F081306A20F059
:1014D00001003062306A20F004003062FFF768FBE0
:1014E000054641F2883700BF306A800722D5FFF7F2
:1014F0005FFB401BB8424FF00300F5D957E700BF30
:10150000306A40F004003062306A40F0010030621E
:10151000FFF74EFB054641F2883700BF306A80076F
:1015200008D4FFF745FB401BB842F7D9032002B0AF
:10153000BDE8F081B8F1000F3FF5B5AEF06920F0DD
:101540008050F061AFE600BF306840F4802030602A
:10155000306840F4803006E0306820F4803030603D
:10156000306820F480203060F06AA16820F00F001D
:101570000843F062FFF71CFB054600BF306880039C
:101580003FF56CAEFFF714FB401B6428F6D903202F
:1015900002B0BDE8F08100BF7068D4E9081220F401
:1015A000741010430843706001203866FFF700FB99
:1015B000044600BF306880013FF57FAFFFF7F8FABF
:1015C000001B02284FF00300F4D9F0E6704700003A
:1015D000B0B582B0044600684168826802F04103F9
:1015E000012B09D111F0400306D0E16C204602B076
:1015F000BDE8B040084700BF930709D511F080034C
:1016000006D0216D204602B0BDE8B040084700BFBB
:1016100012F4B07F18BF11F0200301D102B0B0BDA9
:10162000530618D594F85D30032B09D100210191A0
:10163000C168019180680190019802B0B0BD00BFFF
:10164000236E43F00403236600230193C3680193D0
:1016500083680193019B930604D4D20511D4226EB2
:10166000DAB9DBE7236E43F001032366002301931D
:1016700083680193036823F040030360019BD20554
:10168000EDD5226E42F008022266002201928268A5
:101690000192019A226E002AC0D04268890722F086
:1016A000E00242604FF0010284F85D2020D04168E2
:1016B00042F6A16521F003014160A06DC0F600056E
:1016C00038B14563FFF7D2F818B1206E40F0400002
:1016D0002066606D0028A1D04563FFF7C7F8002899
:1016E0009CD0206E40F04000206602B0B0BD00BF2C
:1016F000204602B0BDE8B040FFF768BF002804BF35
:1017000001207047B0B50446406A28B1002020612E
:1017100004F1140006E000BF6068B0F5827F03D0DA
:1017200004F11C00002101600025A56294F85D0011
:1017300020B9204684F85C5000F052F8022084F86A
:101740005D002068D4F80CE00268BEF5E06F22F07E
:10175000400202604EF4006298BF0125B2F5706F3E
:101760001CBF0023A3624FEA053CD4E90135D4E94C
:10177000042103F4827305F404452B4402F00202B1
:101780001A44A36901F00101E569114403F40072F0
:10179000114405F03802256A114405F08002A56A5B
:1017A000114405F40052114301600421626A0EF4F1
:1017B000706501EA1341636B45EA0C0502F0100203
:1017C000294303F00803114319434160C16921F41F
:1017D0000061C16100200121206684F85D10B0BD68
:1017E000006843F20001C4F20101884218BF70474B
:1017F0002DE9F04186B041F21400C4F202004168C4
:1018000001AC41F48051416041684FF0020801F49D
:101810008051019101990168002641F40031016075
:101820000168032701F40031019101990168052540
:1018300041F4802101600068214600F4802001907D
:1018400001984FF4004001904FF09040CDF808808F
:10185000039604970595FFF7CDF83820CDE90108E8
:1018600040F20040C4F600002146CDE9036705952B
:10187000FFF7C0F8232005210022FFF749FA2320B3
:10188000FFF734FA06B0BDE8F04170472DE9F043A8
:1018900081B0044690F85D00012811D16068994636
:1018A00016460D46B0F5827F01D1A068D0B194F8FC
:1018B0005C00012806D10227384601B0BDE8F0835C
:1018C000022708E0012784F85C70FFF771F9002D0A
:1018D00018BF002E14D1002084F85C00384601B0F7
:1018E000BDE8F083042084F85D00204629462A469E
:1018F0003346CDF8009000F01FFA01B0BDE8F08348
:101900008046042084F85D00002020662564A4F849
:101910004460A4F84660A063A087E0872168C4E91A
:101920001300D4E902204B68B0F5E06F23F4805334
:1019300098BF03F58053B2F5004F4B604AD10A6857
:1019400022F040020A600A6822F480420A600A68B3
:10195000520642D5B4F84610B0F5E06F46D80029DB
:101960007BD019F1010010D120E000BF007B216C79
:101970000870206C01302064B4F846000138A4F8E7
:101980004600B4F84600002867D020688168C9077F
:10199000ECD1FFF70DF9A0EB08004845F1D342E088
:1019A000FFF706F9B4F84600002856D02068816891
:1019B000C907F5D0007B216C0870206C01302064D1
:1019C000B4F846000138A4F84600B4F846000028F0
:1019D000ECD142E00A685206BCD40A6842F04002E8
:1019E0000A60B4F84610B0F5E06FB8D9A9B319F1A0
:1019F00001000ED11FE000BFC068216C21F8020B6E
:101A00002164B4F846000138A4F84600B4F8460052
:101A100018B320688168C907EED1FFF7C9F8A0EBB9
:101A200008004845F2D303274DE000BFFFF7C0F898
:101A3000B4F8460088B120688168C907F6D0C0684C
:101A4000216C21F8020B2164B4F846000138A4F897
:101A50004600B4F846000028EDD16068B0F5827FFA
:101A60000BD1A068B0F5004F02D0B0F5806F04D163
:101A70002068016821F04001016020464946424645
:101A800001F0D6FA30B1206E40F020002066202010
:101A9000206613E06068B0F5827F0FD1A068B0F5D2
:101AA000004F02D0B0F5806F08D120464FF4C061DE
:101AB0004A46434601F0FCF90028E4D1206E08B103
:101AC000012708E70027012084F85D0003E70000F4
:101AD0002DE9F04182B0044690F85C00012803D162
:101AE000022002B0BDE8F08101201D4616460F46D7
:101AF00084F85C00FFF75CF894F85D1001290DD1C3
:101B00008046002F4FF0010018BF002E0ED100219B
:101B100084F85C1002B0BDE8F08100BF0220002113
:101B200084F85C1002B0BDE8F08100BF0320002102
:101B300084F85D002166A763A687E6872164A4F880
:101B40004410A4F84610A068E164B0F5004F206886
:101B5000216507D1016821F040010160016841F46D
:101B6000804101600168490603D4016841F04001E9
:101B700001606168731EE268B1FA81F1B3FA83F320
:101B800049095B09B2F5E06F41EA03013CD931B183
:101B900037F8021BC160A763E08F0138E087E08F50
:101BA00000286FD0681C0CD11DE000BFA16B31F87C
:101BB000022BC260A163E08F0138E087E08F00282C
:101BC00060D0206881688907F0D4FEF7F1FFA0EBB0
:101BD0000800A842F2D30320A5E000BFFEF7E8FF0B
:101BE000E08F00284ED0206881688907F6D5A16B68
:101BF00031F8022BC260A163E08F0138E087E08FEB
:101C00000028F0D13EE000BF89B1E18F02294FF6F4
:101C1000FE7103D337F8022BC26004E03A78013139
:101C20000273A06B471CA763E08F0844E087E08F36
:101C300040B3681C5BD04FF6FE70461C08E000BF46
:101C4000FEF7B6FFA0EB0800A842C4D2E08FC8B1EF
:101C5000216888688007F3D5E28FA06B022A05D33C
:101C600030F8022BCA604FF6FE7104E0007808736A
:101C7000A06B31460130A063E08F0844E087E08F1D
:101C80000028E5D120464FF4C0512A46434601F0D2
:101C90000FF968B920462946424601F0C9F938B91A
:101CA00020464FF4C0612A46434601F001F928B1AD
:101CB000206E40F02000206620202066A06838B901
:101CC000002001902068C16801918068019001980E
:101CD000206E38B30120002184F85C1002B0BDE80A
:101CE000F08100BFFEF764FFE08F0028CAD02068B3
:101CF00081688907F6D5E28FA16B012A08D931F8EE
:101D0000022BC260A163E08F0238E087ECE700BFDE
:101D100009780173A06B0130A063E08F0138E08780
:101D2000E2E700BF0020012184F85D10002184F863
:101D30005C1002B0BDE8F0812DE9F04381B00446AB
:101D400090F85C00012803D1022001B0BDE8F083C7
:101D500001201E4615460F4684F85C00FEF728FF5A
:101D600094F85D10814601290CD1002F4FF001003D
:101D700018BF002D14D1002184F85C1001B0BDE81B
:101D8000F08300BF6068B0F5827F40F0B180042925
:101D90004FF00200EFD1A1680029E6D0EBE700BFC9
:101DA000002EE8D094F85D0004281CBF052084F8BC
:101DB0005D00002020662564A4F84660A4F8446015
:101DC000A763E687C4E913002068A687E168426834
:101DD000B1F5E06F22F48052134698BF03F58053AB
:101DE000012E88BF134643600268520603D402687E
:101DF00042F0400202606268731EB2FA82F2B3FAE5
:101E000083F3DDF8208052095B09B1F5E06F43EA06
:101E1000020175D931B137F8021BC160A763E08FA9
:101E20000138E087012518F1010036D102E000BF3A
:101E3000FEF7BEFEE08F20B9B4F84600002800F09F
:101E4000CD802068816889070CD5E18F51B1012DC3
:101E500008D1A16B002531F8022BC260A163E18F8C
:101E60000139E1878168C907E2D0B4F8461000293A
:101E7000DED0C068216C012521F8020B2164B4F882
:101E800046000138A4F84600D2E700BFFEF790FEF6
:101E9000A0EB0900404580F09F80E08F20B9B4F8A6
:101EA0004600002800F09A802068816889070CD5D8
:101EB000E18F51B1012D08D1A16B002531F8022B22
:101EC000C260A163E18F0139E1878168C907DDD074
:101ED000B4F846100029D9D0C068216C012521F83A
:101EE000020B2164B4F846000138A4F84600CDE79F
:101EF0000220002184F85C1001B0BDE8F08300BF2F
:101F000089B1E18F02294FF6FE7103D337F8022B16
:101F1000C26004E03A7801310273A06B471CA763EA
:101F2000E08F0844E087012608F10105E08F18B929
:101F3000B4F84600002851D020688168890719D577
:101F4000E18FB9B1012E15D1E28FA16B022A07D31F
:101F500031F8022BC260A163E18F023908E000BFB3
:101F600009780173A16B20680131A163E18F013908
:101F70000026E1878168C90726D0B4F8461019B356
:101F8000B4F84610022913D3C168226C22F8021B50
:101F90002264B4F846100239A4F84610B4F846108A
:101FA000012910D8416841F4805141600BE000BF25
:101FB000007B216C0870206C01302064B4F846006E
:101FC0000138A4F846000126FEF7F2FD002DADD041
:101FD000A0EB09004045A9D3032029E020464FF497
:101FE000C05142464B4600F063FF68B92046414667
:101FF0004A4601F01DF838B920464FF4C061424608
:102000004B4600F055FF78B1206E40F0200020666E
:10201000202020660120216E51B10120002184F88A
:102020005C1001B0BDE8F0830020216E0029F4D1DE
:10203000012184F85D10002184F85C1001B0BDE836
:10204000F0830000704700007047000070470000F8
:10205000002804BF0120704710B5044690F83D00E9
:1020600028B9002084F83C00204600F023F8022024
:1020700084F83D002068211D01F098F8012084F8C3
:10208000480084F83E0084F83F0084F8400084F85B
:10209000410084F8420084F8430084F8440084F846
:1020A000450084F8460084F8470084F83D0000208D
:1020B00010BD00007047000090F83D1001291DD1AF
:1020C000022180F83D10016842F6FF32C868C4F270
:1020D0000102914240F00100C86011DCB1F1804F73
:1020E00020D040F20040C4F2000081421AD040F6F5
:1020F0000000C4F20000814214D020E001207047AB
:1021000042F60040C4F2010081420BD044F20000CC
:10211000C4F20100814205D043F20040C4F2010044
:1021200081420CD188680722C0F201020240062ACF
:102130004FF00000E3D0B2F5803F08BF7047086859
:1021400040F0010008600020704700007047000068
:10215000F0B581B004460068C5680669B10717D5B7
:1021600015F0020114D06FF0020101610121217705
:102170008069800704D02046FFF7E8FF06E000BF33
:10218000204600F09BF8204600F09AF800202077C7
:10219000700719D515F0040016D020686FF00401FF
:1021A000016102212177806910F4407F04D020462C
:1021B000FFF7CCFF06E000BF204600F07FF8204686
:1021C00000F07EF800202077300717D515F00800C2
:1021D00014D020686FF00801016104212177C069E3
:1021E000800703D02046FFF7B1FF05E0204600F04E
:1021F00065F8204600F064F800202077F00619D535
:1022000015F0100016D020686FF010010161082150
:102210002177C06910F4407F04D02046FFF796FF75
:1022200006E000BF204600F049F8204600F048F8DC
:1022300000202077F00718BF15F0010004D1300608
:1022400005F080070BD412E020686FF001010161F6
:10225000204600F037F8300605F0800707D537B183
:1022600020686FF0800101612046FFF7EDFEF00568
:1022700007D537B120686FF4807101612046FFF700
:10228000E1FE700609D515F0400006D020686FF019
:1022900040010161204600F01FF8B0060CD515F092
:1022A000200009D021686FF0200220460A6101B0A9
:1022B000BDE8F040FFF7CABE01B0F0BD70470000B6
:1022C00070470000006842F60041C4F201018842F4
:1022D00018BF7047FEF772BC7047000070470000DF
:1022E000704700007047000070B501680446C86977
:1022F0000E6840F62F028B680240202A06F0200E5E
:1023000008D1BEF1000F05D0A16E49B32046BDE84B
:102310007040084740F60F02104209D040F22012E8
:10232000C0F2004203F0010C324012EB0C0229D142
:10233000226EC50616D5012A14D116F0100211D04E
:10234000102008628868400626D4B4F85800B4F813
:102350005A10B4F85A20002A18BF884240F0308240
:1023600070BD00BFC20240F1D18013F4800200F0C2
:10237000CD804FF4801220460A62BDE87040FFF71E
:10238000AFBF00BFC20718BF16F4807240F0CA800A
:10239000820700F1D180DAE0606F016849688AB293
:1023A000002ADDD0B4F858309A42D9D2A4F85A1095
:1023B0008069202800F09C80206850E8000F216888
:1023C00020F4807041E80002DAB1206850E8000F84
:1023D000216820F4807041E8000292B1206850E842
:1023E000000F216820F4807041E800024AB12068A3
:1023F00050E8000F216820F4807041E80002002AB4
:10240000DAD1206850E8020F216820F0010041E88D
:102410000202DAB1206850E8020F216820F00100C2
:1024200041E8020292B1206850E8020F216820F0D2
:10243000010041E802024AB1206850E8020F216819
:1024400020F0010041E80202002ADAD1206850E8B9
:10245000020F216820F0400041E80202DAB1206852
:1024600050E8020F216820F0400041E8020292B1DA
:10247000206850E8020F216820F0400041E8020285
:102480004AB1206850E8020F216820F0400041E87E
:102490000202002ADAD12020C4F880000020206641
:1024A000206850E8000F216820F0100041E8000289
:1024B000DAB1206850E8000F216820F0100041E8F0
:1024C000000292B1206850E8000F216820F010004F
:1024D00041E800024AB1206850E8000F216820F06E
:1024E000100041E80002002ADAD1606FFEF796F989
:1024F00002206066B4F85800B4F85A10401A81B24D
:102500002046BDE87040FFF7E9BE00BF010640F17C
:102510001B8116F0800100F01781E16E00297FF425
:10252000F5AE1DE701220A62D4F8842042F00102D0
:10253000C4F8842082070AD5BCF1000F07D002221C
:102540000A62D4F8842042F00402C4F884204207CE
:102550000AD5BCF1000F07D004220A62D4F8842007
:1025600042F00202C4F8842002070AD55CEA0E0297
:1025700007D008220A62D4F8842042F00802C4F886
:10258000842002050BD516F0806208D04FF400625B
:102590000A62D4F8842042F02002C4F88420D4F8DF
:1025A0008420002A3FF4DCAE800607D5BEF1000F80
:1025B00004D0A26E12B1204690472168D4F884005E
:1025C000896800F0280001F04001401806D120463B
:1025D000FFF788FE0020C4F8840070BD206850E832
:1025E000000F216820F4907041E80002BAB320681F
:1025F00050E8000F216820F4907041E8000272B3A7
:10260000206850E8000F216820F4907041E8000233
:102610002AB3206850E8000F216820F4907041E848
:102620000002002ADAD11AE0206850E8020F21687F
:1026300020F0010041E80202DAB1206850E8020F00
:10264000216820F0010041E8020292B1206850E8C0
:10265000020F216820F0010041E802024AB120681F
:1026600050E8020F216820F0010041E80202002A30
:10267000DAD1206E012824D1206850E8000F2168AB
:1026800020F0100041E80002DAB1206850E8000FA5
:10269000216820F0100041E8000292B1206850E863
:1026A000000F216820F0100041E800024AB12068C4
:1026B00050E8000F216820F0100041E80002002AD5
:1026C000DAD12020C4F88000002020662168A066AE
:1026D000886840066ED500BF206850E8020F216868
:1026E00020F0400041E80202DAB1206850E8020F11
:1026F000216820F0400041E8020292B1206850E8D1
:10270000020F216820F0400041E802024AB120682F
:1027100050E8020F216820F0400041E80202002A40
:10272000DAD1606F002845D043F22551C0F6000190
:102730004163FEF79BF800283FF412AE606F416BD7
:10274000BDE87040084700BF40067FF509AE16F0AF
:10275000400008BF70BD00BF206850E8000F21682E
:1027600020F0400041E80002DAB1206850E8000F94
:10277000216820F0400041E8000292B1206850E852
:10278000000F216820F0400041E800024AB12068B3
:1027900050E8000F216820F0400041E80002002AC4
:1027A000DAD120200021E0672046E166BDE87040D4
:1027B00000F052BA2046BDE87040FFF793BD00BF5D
:1027C000401A00BF216851E8001F226821F490716F
:1027D00042E80013BBB3216851E8001F226821F4CE
:1027E000907142E8001373B3216851E8001F22681A
:1027F00021F4907142E800132BB3216851E8001FC7
:10280000226821F4907142E80013002BDAD11AE01B
:10281000216851E8021F226821F0010142E80213F9
:10282000DBB1216851E8021F226821F0010142E872
:10283000021393B1216851E8021F226821F00101BF
:1028400042E802134BB1216851E8021F226821F0CF
:10285000010142E80213002BDAD12021C4F88010D4
:1028600000212166A16600BF216851E8001F22688F
:1028700021F0100142E80013DBB1216851E8001F8C
:10288000226821F0100142E8001393B1216851E859
:10289000001F226821F0100142E800134BB12168AB
:1028A00051E8001F226821F0100142E80013002BBC
:1028B000DAD1022281B220466266BDE87040FFF79D
:1028C0000DBD000010B5C0B10446C06F28B900208E
:1028D00084F87800204600F025F82420E06720687E
:1028E000616A026822F00102026011B1204600F024
:1028F000EFFC204600F01EFE10B1012010BD00BF0D
:102900002168486820F490404860886820F02A00D8
:102910008860086840F0010220460A60BDE8104067
:1029200000F04CBD70B586B00446216844F2004208
:10293000C4F2000200209142CDE90400CDE902007A
:1029400001904FD044F60000C4F2000081426FD0E5
:1029500043F60000C4F20100814240F0B38041F22E
:102960001400C4F202004168002641F48041416035
:10297000416801F4804100910099016841F40031FF
:102980000160006801A900F40030009000984FF445
:10299000C06001900220029003200490072005905F
:1029A0004FF090400396FEF725F83020C4F2020065
:1029B00040F294152830C2F200058021C5E90006D6
:1029C0002846C5E90261C5E90466C5E90666FDF762
:1029D000C3FF002818BFFDF7CDFE65676C62252494
:1029E00068E000BF41F21401C4F202018A6842F4B7
:1029F00000328A608A6802F400320092009A0A6803
:102A000042F400320A60096801F400310091009933
:102A10000C2101910221CDE902100320049007202E
:102A2000059001A94FF09040FDF7E4FF262441E016
:102A300041F21400C4F202008168002641F48021B2
:102A40008160816801F4802100910099016841F45E
:102A500080210160006801A900F4802000900098A6
:102A60004FF4406001900220029003200490072060
:102A7000059040F20040C4F600000396FDF7BAFF4F
:102A800040F2D8153020C2F20005C4F202008021C5
:102A9000C5E900062846C5E90261C5E90466C5E93D
:102AA0000666FDF759FF002818BFFDF763FE65674E
:102AB0006C622724204605210022FEF729F92046D2
:102AC000FEF714F906B070BD2DE9F0410446C06F61
:102AD00020281CBF0220BDE8F0810D4600294FF0E0
:102AE000010000F0B6801646002A08BFBDE8F0815C
:102AF0000020C4F8840021209846E067FEF758F8CB
:102B0000A4F85060A4F85260A1680646B1F5805F51
:102B100002D1206900286BD02F460025B4F852005E
:102B200000286BD018F101001CD0B8F1000F3DD186
:102B300021680BE017F8010B0885B4F85200013842
:102B4000A4F85200B4F85200002858D0C869000612
:102B500040F17A80002FEDD135F8020B00276FF39A
:102B60005F20E9E7216802E0C869000609D4C86966
:102B7000000606D4C86900065CBFC8695FEA006049
:102B8000F2D51FB117F8010B05E000BF35F8020BB5
:102B900000276FF35F200885B4F852000138A4F8CD
:102BA0005200B4F852000028E1D128E0216800BFAB
:102BB000C869000608D4FDF7FBFF801B404545D8D7
:102BC00021680868F4E700BF17B117F8010B04E0AB
:102BD00035F8020B00276FF35F200885B4F8520028
:102BE0000138A4F85200B4F852000028E0D106E001
:102BF0000027B4F8520000287FF494AF2168C86918
:102C000040061FD4B8F1000F1ED018F101000FD1FB
:102C1000C869400616D4C869400613D4C86940067E
:102C200010D4C86940064FF00000F1D50FE000BF96
:102C3000FDF7BEFF801B404508D820680168C069C9
:102C40004006F5D5002002E0FDF7B2FF0320202169
:102C5000E167BDE8F081000070470000FEE700007A
:102C6000FEE70000FEE70000EFF30980BFF36F8F7F
:102C7000144B1A681EF0100F08BF20ED108A20E9CF
:102C8000F04F10602DE909004FF0500080F31188DB
:102C9000BFF34F8FBFF36F8F01F094FE4FF0000032
:102CA00080F31188BDE8090019680868B0E8F04FA2
:102CB0001EF0100F08BFB0EC108A80F30988BFF334
:102CC0006F8F7047DC0000202DE9F041B8B00C4652
:102CD000002105AD8DF81610ADF8141029462246D6
:102CE00000F0B0FFC0B12D480DF11C0C06902BA0D8
:102CF000071D40698ECF0B9040F268208CE88E0053
:102D0000C2F2000006A916224FF0FF33FFF7DCFEE7
:102D100038B0BDE8F08100BF42F23A00C0F20900CD
:102D2000049047F26140C2F26100039046F26140B4
:102D3000C6F22040029040F60D20C6F2525001909B
:102D400040F26820C2F2000001A90F224FF0FF33C9
:102D5000FFF7BAFE012C13DB6F1E44F692750026B6
:102D60000DF11808C0F6000517F8012F08EB060052
:102D70002946FDF793FA013C0644F5D101E000BF76
:102D8000002640F26820B2B2C2F2000006A9642315
:102D9000FFF79AFE38B0BDE8F08100BF0D0A46612A
:102DA000696C656420746F207361766520666C6160
:102DB000736800002DE9F041B6B00C46054600F0FE
:102DC0007DFFC8B12C480DF1140C04902AA0071DFA
:102DD000D0E905608ECFCDE9096040F268208CE82B
:102DE0008E00C2F2000004A919224FF0FF33FFF752
:102DF0006BFE36B0BDE8F0814FF41260039044F2F0
:102E00004940C3F62020029044F24450C2F24300ED
:102E1000019040F60D20C4F24A50009040F2682024
:102E2000C2F2000069460E224FF0FF33FFF74CFE5E
:102E3000012C13DB6F1E44F6927500260DF110086D
:102E4000C0F6000517F8012F08EB06002946FDF72C
:102E500025FA013C0644F5D101E000BF002640F20E
:102E60006820B2B2C2F2000004A96423FFF72CFE6E
:102E700036B0BDE8F08100BF4661696C65642074BE
:102E80006F2072656164204A454445432049440DE2
:102E90000A00000040F27400C2F20000FEF798BB86
:102EA000406A0021A0F84610C187FEF78FBB0000E2
:102EB0002DE9F04782B000261F4690460D46814618
:102EC0008DF80360FDF774FE381A00EB0807FDF774
:102ED0006FFE40F20801C2F200010968232251434B
:102EE000090DD9F8004079430191A168294235D0F4
:102EF000824618F1010035D0B5F5C06F1AD100BF78
:102F0000207B8DF803009DF80300FDF751FEA0EB38
:102F10000A00B8425ED2019801990028A1F101018E
:102F20000191D9F80010896808BF074611F4C06FF5
:102F3000E6D112E0FDF73CFEA0EB0A00B84249D210
:102F4000019801990028A1F101010191D9F800101F
:102F5000896808BF07462942ECD10026304602B0F6
:102F6000BDE8F0870026B5F5C06F25D1207B8DF830
:102F700003009DF80300A06810F4C06FEDD0207B23
:102F80008DF803009DF80300A06810F4C06FE4D032
:102F9000207B8DF803009DF80300A06810F4C06F3B
:102FA000DBD0207B8DF803009DF80300A06810F4AF
:102FB000C06FDBD1D2E700BFA0682842CDD0A068A7
:102FC0002842CAD0A0682842C7D0A0682842F3D1BE
:102FD000C4E700BFD9E900014268B1F5827F22F061
:102FE000E00242600BD1D9F80810B1F5004F02D0D1
:102FF000B1F5806F03D1016821F040010160D9F87B
:103000002810B1F5005F07D1016821F4005101607B
:10301000016841F400510160012089F85D00002041
:1030200089F85C000326304602B0BDE8F087000056
:10303000F0B581B015460E460446FDF7B9FD281AD5
:103040008719FDF7B5FD40F20801C2F200010968D9
:10305000C1F3CB317943009121688A68120622D5E9
:103060000546701C15D000BFFDF7A2FD401BB842FD
:103070001CD2009800990028A1F10101009121685B
:10308000896808BF07460806EED40CE08868000689
:1030900009D58868000606D58868000644BF886898
:1030A0005FEA0060F2D4002001B0F0BDD4E9000175
:1030B0004268B1F5827F22F0E00242600AD1A16845
:1030C000B1F5004F02D0B1F5806F03D1016821F056
:1030D00040010160A16AB1F5005F07D1016821F4E8
:1030E00000510160016841F400510160012084F841
:1030F0005D00002084F85C00032001B0F0BD0000FA
:10310000064B19680868B0E8F04F80F30988BFF3F0
:103110006F8F4FF0000080F311887047DC000020B3
:1031200084B040F62150C0F20A00039042F27410BD
:10313000C2F22110029047F25340C7F26120019081
:1031400040F26820C2F2000001A90B224FF47A730A
:10315000FFF7BAFC012000F07FFFFBE780B54FF0DE
:10316000500080F31188BFF36F8FBFF34F8F01F0D2
:10317000A9FD30B14EF60450CEF200004FF0805160
:103180000160002080F3118880BD00004EF6885059
:10319000CEF20000016841F4700101607047000048
:1031A00040F21C20C2F20000FEF7D2BF40F2FF7CCA
:1031B0000268C4F2000C604522DD40F60003C4F250
:1031C0000003984225D043F20043C4F20103984221
:1031D0001FD042F60043C4F20103984219D043F2D3
:1031E000FF33C4F2010398421DDC60452ADCB0F1D4
:1031F000804F3DD040F20043C4F2000336E000BFF0
:10320000B0F1804F05D040F20043C4F20003984271
:10321000E5D14B6822F070021A4343F2FF33C4F247
:1032200001039842E1DD44F2FF33C4F20103984206
:1032300012DC43F20043C4F20103984218D044F276
:10324000000311E040F60003C4F2000398420FD0DF
:1032500042F6004308E000BF44F60003C4F2010355
:10326000984205D044F20043C4F20103984203D1CE
:10327000CB6822F440721A4380B54B6922F0800E6D
:103280008A6843EA0E03D1F800C00360C262A0F16D
:103290008042A2F59632830543EA9222072AC0F8BB
:1032A00028C0BDE8804007D8012303FA02F212F0DB
:1032B000E50F1CBF09690163012141610169C9076B
:1032C00008BF7047016921F00101016170470000EA
:1032D000416A0A070ED4CA0717D18A0720D44A07C1
:1032E00029D4CA0632D48A063BD480B54A0644D4CF
:1032F00058E000BF0268D0F834C0536823F400439C
:1033000043EA0C035360CA07E7D00268D0F828C02C
:10331000536823F4003343EA0C0353608A07DED575
:103320000268D0F82CC0536823F4803343EA0C03BE
:1033300053604A07D5D50268D0F830C0536823F4EB
:10334000802343EA0C035360CA06CCD50268D0F848
:1033500038C0936823F4805343EA0C0393608A06D1
:10336000C3D50268D0F83CC0936823F4005343EA05
:103370000C03936080B54A0614D50268D0F840C0AB
:103380005368BCF5801F23F4801343EA0C03536099
:1033900008D1D2F804C0D0F844E02CF4C00343EACA
:1033A0000E035360090658BF80BD0168806C4A68EF
:1033B00022F400221043486080BD0000B0B582B006
:1033C00004460020C4F88400FDF7F2FB216805469E
:1033D0000A68120735D56FF07E4C20464FF4001175
:1033E00000222B46CDF800C000F086F940B300BFA4
:1033F000206850E8000F216820F0800041E80002BA
:10340000DAB1206850E8000F216820F0800041E820
:10341000000292B1206850E8000F216820F080007F
:1034200041E800024AB1206850E8000F216820F00E
:10343000800041E80002002ADAD12020E0675FE046
:1034400021680868400761D56FF07E4C20464FF434
:10345000800100222B46CDF800C000F04DF9002875
:1034600054D000BF206850E8000F216820F490700D
:1034700041E80002E2B1206850E8000F216820F422
:10348000907041E800029AB1206850E8000F21686E
:1034900020F4907041E8000252B1206850E8000F1B
:1034A000216820F4907041E80002002ADAD100BFC0
:1034B000206850E8020F216820F0010041E8020274
:1034C000DAB1206850E8020F216820F0010041E8DD
:1034D000020292B1206850E8020F216820F001003A
:1034E00041E802024AB1206850E8020F216820F04A
:1034F000010041E80202002ADAD12020C4F880004D
:103500000320002184F8781002B0B0BD2020E067CD
:10351000C4F88000002020666066002184F87810DE
:1035200002B0B0BD406A0021A0F85A10A0F85210B5
:10353000FEF7D8BEB0B505460168806805F10C04F9
:103540001CCC184340EA0403D5F81CC00C6849F2AF
:103550000C6024EA0000184340EA0C000860486848
:1035600020F4405010434860A8692A6A8B681043D1
:1035700023F430621043886044F6FF30C4F2000048
:1035800081424FF0100219DD44F60040C4F2000001
:10359000814227D045F20000C4F20000814229D0C8
:1035A00043F60000C4F20100814239D141F23000FB
:1035B000C4F2020001684CA22EE000BF44F20040B9
:1035C000C4F2000081421DD044F60000C4F20000A5
:1035D000814225D141F23000C4F202000068810C22
:1035E00016E000BF41F23000C4F202000068010D95
:1035F0000EE000BF41F23000C4F202000068810D0D
:1036000006E000BF41F23000C4F202000068010C85
:1036100044F67C72C0F6000201F0030052F820204C
:1036200041F20020BCF5004FC0F27A000ED1082A0A
:103630004FF0010153D8DFE802F0051923521D5263
:1036400052522100FDF79AFDD0B944E0082A4FF00C
:10365000010144D8DFE802F0062832432C434343FB
:10366000300000BFFDF78AFD40BB34E0FDF79AFD56
:1036700030B930E0FDF7AAFD10B92CE04FF400405E
:1036800069684A0802EB4000B0FBF1F04FF6EF72B8
:10369000A0F11001914221D84FF6F0710140C0F322
:1036A0004200084415E000BFFDF77CFD30B912E090
:1036B000FDF78CFD10B90EE04FF4004069684FF63D
:1036C000EF7200EB5100B0FBF1F0A0F1100191425C
:1036D00004D82968C860002101E000BF0121002250
:1036E0000846AA66EA66B0BD0100000004000000BA
:1036F00008000000020000002DE9F041804600684B
:103700001546C2690E461140891BB1FA81F149097B
:10371000A94223D1069C2CB3611C29D1C169314037
:10372000891BB1FA81F14909A94217D1C169314018
:10373000891BB1FA81F14909A9420FD1C169314010
:10374000891BB1FA81F14909A94207D1C169314008
:10375000891BB1FA81F14909A942DFD00020BDE8F7
:10376000F08100BFFDF724FA0320BDE8F08100BF1F
:103770001F4607E0C0693040801BB0FA80F0400966
:10378000A842EBD1FDF714FAC01BA04200F2B080B2
:10379000D8F8000001684907ECD5402EEAD0802E09
:1037A000E8D0C169090700F1A780C1690905E1D521
:1037B0004FF400610162D8F8000050E8000FD8F81B
:1037C000001020F4907041E80002002A43D0D8F89D
:1037D000000050E8000FD8F8001020F4907041E885
:1037E0000002C2B3D8F8000050E8000FD8F800106B
:1037F00020F4907041E800026AB3D8F8000050E865
:10380000000FD8F8001020F4907041E80002002A60
:10381000D1D120E0D8F8000050E8020FD8F800100D
:1038200020F0010041E802020AB3D8F8000050E895
:10383000020FD8F8001020F0010041E80202B2B1F6
:10384000D8F8000050E8020FD8F8001020F001006E
:1038500041E802025AB1D8F8000050E8020FD8F847
:10386000001020F0010041E80202002AD2D1D8F86D
:10387000600001282CD1D8F8000050E8000FD8F8DB
:10388000001020F0100041E800020AB3D8F8000050
:1038900050E8000FD8F8001020F0100041E80002B6
:1038A000B2B1D8F8000050E8000FD8F8001020F0AE
:1038B000100041E800025AB1D8F8000050E8000FAB
:1038C000D8F8001020F0100041E80002002AD2D100
:1038D00020200021C8F88000C8F86010C8F86810DF
:1038E000C8F88400032088F87810BDE8F08100BF94
:1038F0000320BDE8F08100BF08210162D8F8000074
:1039000050E8000FD8F8001020F4907041E8000251
:10391000002A44D0D8F8000050E8000FD8F8001072
:1039200020F4907041E80002CAB3D8F8000050E8D3
:10393000000FD8F8001020F4907041E8000272B334
:10394000D8F8000050E8000FD8F8001020F490706C
:1039500041E80002002AD1D121E000BFD8F80000E0
:1039600050E8020FD8F8001020F0010041E80202F0
:103970000AB3D8F8000050E8020FD8F8001020F081
:10398000010041E80202B2B1D8F8000050E8020F8D
:10399000D8F8001020F0010041E802025AB1D8F82E
:1039A000000050E8020FD8F8001020F0010041E8B4
:1039B0000202002AD2D1D8F8600001282CD1D8F810
:1039C000000050E8000FD8F8001020F0100041E887
:1039D00000020AB3D8F8000050E8000FD8F8001031
:1039E00020F0100041E80002B2B1D8F8000050E821
:1039F000000FD8F8001020F0100041E800025AB182
:103A0000D8F8000050E8000FD8F8001020F010009F
:103A100041E80002002AD2D12020C8F8800000200E
:103A20000821C8F86000C8F86800C8F8841088F851
:103A300078000120BDE8F08140F26820C2F2000069
:103A4000FEF752BC40F2F020C2F20000FEF74CBC80
:103A500040F27830C2F20000FEF746BCFEE70000FC
:103A6000B0B582B005208DF807004FF090404FF4BC
:103A700000410022FDF796F840F27400C2F2000007
:103A80000DF10701012264230124FEF721F858B14A
:103A90004FF090404FF4004101220124FDF782F8DD
:103AA000204602B0B0BD00BF40F27400C2F2000078
:103AB0000DF1060101226423FDF7E8FE05464FF0F3
:103AC00090404FF400410122FDF76CF89DF806008C
:103AD000002D08BF00F00104204602B0B0BD000078
:103AE0002DE9F04F85B004460620154688468DF82E
:103AF00011004FF090404FF400410022FDF752F8C2
:103B000040F27400C2F200000DF1110101226423A1
:103B1000FDF7DEFF4FF090404FF400410122FDF72A
:103B200041F8002D00F08A8040F27407C2F20007CD
:103B30004FF005090DF1130607E000BF019DDDF808
:103B40000880B5EB0A05D04474D002208DF80D0032
:103B5000200C8DF80E00200A8DF80F00E0B2C0F5A1
:103B6000807A4FF090404FF4004100228DF81040D1
:103B70005545019538BFAA46FDF714F838460DF1B2
:103B80000D0104226423FDF7A3FF30B91FFA8AF266
:103B9000384641466423FDF79BFF00904FF090406C
:103BA0004FF400410122CDF80880FCF7FBFF54449C
:103BB000FCF7FEFF804600BF4FF090404FF40041FD
:103BC00000228DF81390FCF7EDFF384631460122B4
:103BD0006423FDF77DFF58B14FF090404FF4004152
:103BE00001220125FCF7DEFFFCF7E2FFDDB9A5E7C6
:103BF00038460DF1120101226423FDF747FE83468A
:103C00004FF090404FF400410122FCF7CBFF01251B
:103C10009DF81200BBF1000F08BF00F00105FCF792
:103C2000C7FF002D8AD0A0EB0800B0F57A7FC3D380
:103C300084E700BF5DF8140BBDE8F08F05B0BDE868
:103C4000F08F000070B582B00C4603218DF804108F
:103C5000010C8DF80510010A15468DF806108DF837
:103C600007004FF090404FF400410022FCF79AFF0C
:103C700040F27400C2F2000001A904224FF4FA736A
:103C8000FDF726FF064618B1304602B070BD00BFF2
:103C900040F27400AAB2C2F2000021464FF4FA6367
:103CA000FDF7F4FD06464FF090404FF4004101222D
:103CB000FCF778FF304602B070BD0000B0B582B0AE
:103CC00004469F2003298DF8070003DA01252846C2
:103CD00002B0B0BD4FF090404FF400410022FCF71D
:103CE00061FF40F27400C2F200000DF107010122F1
:103CF0006423FDF7EDFE054648B940F27400C2F2B8
:103D00000000214603226423FDF7C0FD05464FF065
:103D100090404FF400410122FCF744FF284602B0D6
:103D2000B0BD000070B582B020218DF80310010CE9
:103D30008DF80410010A8DF8060006208DF8051094
:103D40008DF807004FF090404FF400410022FCF73F
:103D500029FF40F27404C2F200040DF1070120466D
:103D600001226423FDF7B4FE4FF090404FF4004170
:103D70000122FCF717FF4FF090404FF40041002262
:103D8000FCF710FF0DF10301204604226423FDF728
:103D90009FFE04464FF090404FF400410122FCF793
:103DA00001FFFCF705FF0546FFF75AFE0646FCF744
:103DB000FFFE1EB1401BB0F57A7FF5D3204602B05E
:103DC00070BD00009EB0FCF707FF14AC201D24213D
:103DD000FCF76AFB684604303821FCF765FB0220DB
:103DE00014900120189010201990002520461B9552
:103DF000FDF718FA20B1EFF3108072B6FEE700BFAE
:103E00000F20CDE90F050FA80021CDE9115513951D
:103E1000FDF7C0F820B1EFF3108072B6FEE700BFE7
:103E20000720009000276846CDE902770497FCF749
:103E3000ABFF28B1EFF3108072B600BFFEE700BF02
:103E400041F214060497C4F20206306840F60005F9
:103E500040F4002030603068C4F6000500F4002013
:103E600014901498306844F2004840F400303060F8
:103E7000306840F2071100F4003014901498306854
:103E8000002240F4802030603068C4F2000800F462
:103E9000802014901498284640F2071AFCF782FEFE
:103EA000A5F580642046022100224FF00209FCF7AC
:103EB00079FEEB46CDF800A04FF0010A284659469E
:103EC000CDE901A70397FCF795FD1020CDE9000788
:103ED000284659460297FCF78DFD20465946CDE904
:103EE000009ACDE90277FCF785FD3068052140F0A6
:103EF000010030603068002200F00100009000985E
:103F00000D20FCF705FF0D20FCF7F0FE0F2005212A
:103F10000022FCF7FDFE0F20FCF7E8FE40F26820CF
:103F200008F57441C2F200000C234FF4E13280E83E
:103F30008600C0E90377C0E90537C0E90777476223
:103F4000FEF7C0FC20B1EFF3108072B6FEE700BFB1
:103F500040F27004C2F2000408F56C41204640F8BB
:103F6000041F4FF4827100254FF4E062C0E901158F
:103F700000F10C014FF4802381E804060721C0E919
:103F800006350562C0E90955C0E90B154563FDF723
:103F9000B5FB28B1EFF3108072B600BFFEE700BF9B
:103FA00040F2F020C2F200004FF416510C26C0E996
:103FB0000081C0E90255C0E90456C0E90655C0E9D0
:103FC0000855FEF77FFC28B1EFF3108072B600BFF2
:103FD000FEE700BF40F2783008F58061C2F20000D1
:103FE00000234FF4E13280E80E00C0E90333C0E95A
:103FF0000563C0E907334362FEF764FC20B1EFF3C9
:10400000108072B6FEE700BF0C480DF1040C009062
:104010000AA0071D8ECFD0E905608CE88E00CDE99F
:1040200005606846002100F027F82060FCF728FBB7
:10403000FCF748FB00F01AF8FEE700BF9E4F0008AF
:104040002131000800000000000000008000000096
:10405000000000000000000080B580B2012898BF79
:10406000012000F0F7FB002080BD000080B500F0CB
:104070003DFC002080BD0000B0B584B043698E4691
:1040800093B1846984B10589D0E9001C026928B222
:10409000843D18BFC51CCDE90053604673460294A9
:1040A00000F0D6FD04B0B0BD0589D0E90013028A46
:1040B00028B2843D18BFC51C03AC18467346CDE931
:1040C000005400F095FD0399012818BF002108460F
:1040D00004B0B0BD2DE9F041044600F0FDFA40F215
:1040E000D806C2F20006706940F2004501307061E6
:1040F0007068C2F2000548B1B069002840D170680C
:10410000E16AC06A884298BF746039E0746070697F
:10411000012835D1284600F083FA05F1140000F09B
:104120007FFA05F1280000F07BFA05F13C0000F071
:1041300077FA05F1500000F073FA05F1640000F021
:104140006FFA05F1780000F06BFA40F26C18C2F2D9
:104150000008404600F064FA08F11407384600F001
:104160005FFA06F1600000F05BFA06F1380000F03B
:1041700057FA06F14C0000F053FAC6F82C8037636A
:10418000B068F16801220131F160E16A8A401043B0
:10419000B06001EB810005EB8000211D00F084FA86
:1041A00000F0BEFAB06988B17068E16AC06A8842FE
:1041B00028BFBDE8F0814EF60450CEF200004FF06B
:1041C00080510160BFF34F8FBFF36F8FBDE8F08167
:1041D00040F2D80540F200464EF60458C2F20005FF
:1041E000C2F20006CEF200084FF0805703E000BF95
:1041F000204600F0ADFA2869D0B100F06DFA686C85
:10420000C468201D00F0ECF968690138686128690C
:104210000138286100F084FA94F851000228EAD0AD
:104220000128E5D070B9206B00F092FAE0E700BFFA
:1042300030680228DFD3C8F80070BFF34F8FBFF398
:104240006F8FD8E74FF0500080F31188BFF36F8F66
:10425000BFF34F8FFEE700002DE9F0470A9F82462B
:10426000386BDDF8248000EB82000A78089C87F820
:1042700034200A7804389946002A20F007064BD0EB
:10428000487887F835004878002845D0887887F83E
:104290003600887800283FD0C87887F83700C8787B
:1042A000D0B3087987F838000879A8B3487987F837
:1042B0003900487980B3887987F83A00887958B30B
:1042C000C87987F83B00C87930B3087A87F83C0092
:1042D000087A08B3487A87F83D00487AE0B1887ACE
:1042E00087F83E00887AB8B1C87A87F83F00C87A64
:1042F00090B1087B87F84000087B68B1487B87F85D
:104300004100487B40B1887B87F84200887B0028C9
:104310001CBFC87B87F843000025381D87F8435031
:10432000062C28BF0624FC62C7E9114500F084F979
:1043300007F1180000F080F984F007003883304658
:1043400051464A463F617F62FD6487F8505000F055
:1043500035F9B8F1000F386018BFC8F80070BDE833
:10436000F087000008480068006880F308884FF074
:10437000000080F3148862B661B6BFF34F8FBFF3BD
:104380006F8F00DF00BF000008ED00E081B000206B
:10439000009040F20C00C2F2000000684FF05001A3
:1043A00081F31188BFF36F8FBFF34F8F013007D0B8
:1043B000FEE700BF009830B9009820B9009810B906
:1043C00000980028F6D001B07047000070B5044690
:1043D00000F0F0FA40F24C1CC2F2000CDCF80400D1
:1043E00050B19CF80000002818BF4FF000404FF07B
:1043F000000554BB85E000BF40F28C40C2F20000D3
:10440000420700F5A05200F1070122F0070218BF91
:1044100021F007000021A2F10803CCF81000CCF82D
:104420001410CCF8043042E90211DCF80420191A07
:10443000C0E9002101208CF800004FF00040CCE9D9
:104440000211002C4FF000055BD0204059D124F020
:10445000070000F11002600708BF04F10802DCF851
:104460000800511E81424CD2604650F810EFDEF831
:10447000045095422BD2DEF80010B9B174464D6855
:10448000954217D20B68ABB15D68954216D2186899
:10449000A0B14568954215D204689CB16568954203
:1044A00014D22168A6460029E9D110E00CF11000D1
:1044B0000DE000BF8E46204609E000BF9E4608463C
:1044C00005E000BF8646184601E000BFA646DCF8BE
:1044D00004108E4514D00168DEF80040AB1A112B91
:1044E00004604DD30EEB0205680719D04FF0500061
:1044F00080F31188BFF36F8FBFF34F8FFEE700BFCC
:10450000002500F065FC680755D04FF0500080F39F
:104510001188BFF36F8FBFF34F8F00BFFEE700BF5F
:104520000CF110006B60CEF8042000BF0368AB42B2
:104530000AD21868A8420BD20368AB4204D21868AA
:104540001A46A842F2D304E00246184601E000BF32
:104550001A4654686B681619AE4202D123441546B8
:104560005360EC18844207D1DCF80440A04203D029
:10457000D0E9000423446B60AA42286018BF15608C
:10458000DEF80400DCE9022301F10805111A994262
:10459000CCF8081038BFCCF80C109CF8001000299B
:1045A0004FF0000118BF40F00040CEE9001000F0CD
:1045B0000FFC6807A9D1284670BD0000034644F2ED
:1045C0008D3021F00101C0F600004FF0807C03E93E
:1045D00003106FF00201A3F1440043E90912704790
:1045E000D0E9013201699A60D1F804C0826884453B
:1045F000536008BF4A600022026108680138086001
:104600000868704741F69023C2F20003036041F648
:104610009000C2F200000860802010607047000027
:104620004FF6FF71024622F8081F00214260C0E9E0
:104630000322016070470000002101617047000003
:1046400010B5B1F800C04FF6FF72944504D102696D
:10465000D2F804E01CE000BF00F10804626813888F
:1046600063450DD853681C8864450DD85A68148872
:1046700064450BD854682388A6466345EED907E005
:104680009646224604E000BF9E4601E096461A4642
:10469000C1F804E0CEF808108A6051600861016832
:1046A0000131016010BD0000D0F800C0436808610E
:1046B0009A684B608A609A68996051600CF10101B8
:1046C00001607047DFF80C00016841F4700101607F
:1046D0007047000088ED00E04FF0500080F3118833
:1046E000BFF36F8FBFF34F8F40F20C00C2F2000098
:1046F00001684A1C026009B1704700BF4EF60450C1
:10470000CEF200000068000608BF70474FF050006E
:1047100080F31188BFF36F8FBFF34F8FFEE7000068
:1047200040F20C00C2F20000016839B101390160A9
:1047300018BF7047002080F3118870474FF0500079
:1047400080F31188BFF36F8FBFF34F8FFEE7000038
:1047500070B5002808BF70BD40F24C16C2F20006CA
:104760000446307854F8041C002818BF4FF000406D
:1047700008420DD0A4F108052A689AB14FF0500004
:1047800080F31188BFF36F8FBFF34F8FFEE700BF39
:104790004FF0500080F31188BFF36F8FBFF34F8F3E
:1047A000FEE700BF21EA000044F8040C00F002F923
:1047B00054F8041CB0680844B06006F1100000BF53
:1047C0000368AB420AD21868A84223D20368AB42FE
:1047D00004D218681A46A842F2D301E002461846ED
:1047E0005368D418AC4202D11944154651606B1875
:1047F000834206D17368984203D0D0E9000319447C
:104800006960AA42286018BF1560BDE8704000F0DA
:10481000DFBA00BF1A465368D418AC42E7D1E3E7C9
:104820004EF21000CEF2000000210160816040F2E3
:104830000801C2F20001096844F6D352C1F26202D3
:10484000A1FB02124FF0FF3101EB921141600721F1
:104850000160704770B500283CD040F2D805C2F224
:1048600000050446E86948B14FF0500080F3118814
:10487000BFF36F8FBFF34F8FFEE700BFE8690130D2
:10488000E8616E8868680430FFF7AAFE40B968687E
:104890000121C06AAA6801FA00F022EA0000A860BB
:1048A0003444A6B26868A642848005D0286B696843
:1048B0000431FFF7C5FE08E0E86A69680431FFF7D4
:1048C000BFFE2888864238BF2C8000F081FA00287D
:1048D00018BF70BD4EF60450CEF200004FF080516C
:1048E0000160BFF34F8FBFF36F8F70BDB0B588B05D
:1048F0000020CDE9050006A805A904AAFFF782FE5D
:104900000598A8B3069C002C3CD05421049A07912A
:104910000799542940D12063022084F8510007A848
:104920000025CDE9005044F2D110C0F600001FA1CF
:1049300000230294FFF790FC2046FFF7CBFB07997A
:1049400040F2D800C2F20000016279B14FF050018C
:1049500081F31188BFF36F8FBFF34F8F4FF6FF7155
:10496000018001218161458000F064F808B0B0BD8C
:104970004FF0500080F31188BFF36F8FBFF34F8F5C
:10498000FEE700BF4FF0500080F31188BFF36F8F38
:10499000BFF34F8FFEE700BF4FF0500080F3118848
:1049A000BFF36F8FBFF34F8FFEE700BF49444C4505
:1049B0000000000040F2D800C2F20000C1690131DD
:1049C000C161704740F2D800C2F20000C1690029FD
:1049D0001EBF012141627047002141628168B1FA26
:1049E00081F1C9B2C1F11F0140F2004201EB810126
:1049F000C2F2000252F8213063B102EB810252F898
:104A0000041F4968131D994211600DD0C9684160A7
:104A1000704700BF4FF0500080F31188BFF36F8FD5
:104A2000BFF34F8FFEE700BF49681160C96841605E
:104A30007047000070B584B04EF20040CEF2000026
:104A40004CF27021C4F20F11D0F800294B1C9A428D
:104A50000AD14FF0500080F31188BFF36F8FBFF37E
:104A60004F8F00BFFEE700BFD0F800298A4209D16E
:104A70004FF0500080F31188BFF36F8FBFF34F8F5B
:104A8000FEE700BF0021019101788DF80B10FF2196
:104A9000017001788DF803109DF8031011F0500299
:104AA00040F26411C2F200010A7000F08D809DF89E
:104AB000032002F05002502A40F090809DF903201C
:104AC000B2F1FF3F66DD019A0024082A4FF0000290
:104AD00006D0019A4FF4E063A3EB022202F4E062F5
:104AE0004A609DF80B104EF620550170CEF200057D
:104AF000286840F47F002860286840F07F402860E4
:104B000045F8044CFFF78CFE40F20C06C2F200069A
:104B10003460FFF7D7FDD5F8140240F04040C5F8E7
:104B20001402FFF71FFCFFF74DFF039430684FF0AE
:104B3000500181F31188BFF36F8FBFF34F8F0130A6
:104B40003CD000BFFEE700BF019A013201929DF800
:104B5000032052008DF803209DF90320B2F1FF3F9E
:104B6000B1DC019A013201929DF8032052008DF8C8
:104B700003209DF90320B2F1FF3FA4DC019A01322A
:104B800001929DF8032052008DF803209DF9032027
:104B9000002A98D5019A013201929DF80320520013
:104BA0008DF803209DF90320B2F1FF3FCCDD8AE7A9
:104BB000039830B9039820B9039810B903980028D6
:104BC000F6D0002004B070BD4FF0500080F3118883
:104BD000BFF36F8FBFF34F8FFEE700BF4FF0500062
:104BE00080F31188BFF36F8FBFF34F8FFEE7000094
:104BF0002DE9F04383B00746900098461546894654
:104C0000FFF7E4FBF8B106465420FFF7DFFBB8B12D
:104C10000446DDE90A100022266384F85120CDE91C
:104C20000010384649462A4643460294FFF714FBD3
:104C30002046FFF74FFA012003B0BDE8F08300BF24
:104C40003046FFF785FD4FF0FF3003B0BDE8F0833D
:104C500070B586B00B9CBCB10C9EFEB1542504957A
:104C6000049D542D24D10A9D3463022486F85140BA
:104C700005ACCDE900540296FFF7EEFA3046FFF797
:104C800029FA059806B070BD4FF0500080F31188E6
:104C9000BFF36F8FBFF34F8FFEE700BF4FF05000A1
:104CA00080F31188BFF36F8FBFF34F8FFEE700BF14
:104CB0004FF0500080F31188BFF36F8FBFF34F8F19
:104CC000FEE700002DE9F04F81B040F2D806C2F2B5
:104CD0000006F06920B1B06A00240130B0626FE0D4
:104CE000708801301FFA80FB834570801FD0F06A06
:104CF000006848B14FF0500080F31188BFF36F8F08
:104D0000BFF34F8FFEE700BFF06A316BF162306393
:104D1000706B01307063F06A006828B1F06AC06897
:104D2000C068808802E000BF4FF6FF703080308896
:104D300040F200488345C2F2000801D2002436E068
:104D4000F06A4FF6FF790068002470B34FF0010A53
:104D500016E000BFF86AB1680AFA00F2114300EBEE
:104D60008000B16008EB80002946FFF79DFCF86ADF
:104D70007168C96AF26A8842106828BF5446A0B1B7
:104D8000F06AC068C7683D4635F8040F83450BD309
:104D90002846FFF725FCB86A0028DBD007F1180089
:104DA000FFF71EFCD6E700BF8146A6F800907068AA
:104DB000C06A00EB800058F82000012888BF012459
:104DC000706A002818BF0124204601B0BDE8F08FAA
:104DD0002DE9F04140F2D805C2F20005E86968B15A
:104DE000FFF77AFCE8690138E861E86980B10024DE
:104DF000FFF796FC2046BDE8F08100BF4FF0500061
:104E000080F31188BFF36F8FBFF34F8FFEE700BFB2
:104E100068690028EBD0286E78B340F2004801267C
:104E2000C2F20008E86EC76807F11800FFF7D8FB68
:104E30003C1D2046FFF7D4FBF86AA96806FA00F289
:104E4000114300EB8000A96008EB80002146FFF7CA
:104E50002BFCF86A6968C96A884228BF6E62286EAE
:104E60000028DFD1E86A006820B1E86AC068C0683D
:104E7000808801E04FF6FF702880AC6A4CB10126B3
:104E8000FFF720FF002818BF6E62013CF8D1002018
:104E9000A862686A0028AAD04EF60450CEF200003C
:104EA0004FF080510160BFF34F8F0124BFF36F8F2C
:104EB000FFF736FC2046BDE8F08130380A2801D2E1
:104EC0000120704700207047F1EE100A4FF6FF7185
:104ED000C0F2C03120EA010040F04070E1EE100A5B
:104EE00070473031323334353637383941424344F4
:104EF0004546403058003031323334353637383952
:104F00006162636465664030780004000008000058
:104F10000000000000020001000010004661696C02
:104F2000656420746F2064656C6574650D0A00000B
:104F30000D0A4661696C656420746F207361766543
:104F40000000000000000000000000000102030457
:104F5000060708090000000001020304020304051B
:104F6000060708090A0B0C0D0E0F101001020304AE
:104F700005060708090A0B0C0D0E0F1000000000B3
:104F8000040000000800000002000000426C796E7E
:104F90006B00253032582000466C617368006465F0
:104FA0006661756C745461736B000000D04F00082B
:104FB0000000002010000000EC010008E04F000895
:104FC00010000020D82000000C02000800000000A3
:104FD000010000001000000000127A00AAAAAAAA8C
:040000050800018965
:00000001FF
